{
  "contractName": "Activity",
  "abi": [
    {
      "constant": false,
      "inputs": [],
      "name": "kill",
      "outputs": [],
      "payable": false,
      "stateMutability": "nonpayable",
      "type": "function"
    },
    {
      "constant": true,
      "inputs": [],
      "name": "owner",
      "outputs": [
        {
          "name": "",
          "type": "address"
        }
      ],
      "payable": false,
      "stateMutability": "view",
      "type": "function"
    },
    {
      "constant": false,
      "inputs": [
        {
          "name": "newOwner",
          "type": "address"
        }
      ],
      "name": "transferOwnership",
      "outputs": [],
      "payable": false,
      "stateMutability": "nonpayable",
      "type": "function"
    },
    {
      "inputs": [
        {
          "name": "_participantLimit",
          "type": "uint256"
        },
        {
          "name": "_activityName",
          "type": "string"
        }
      ],
      "payable": false,
      "stateMutability": "nonpayable",
      "type": "constructor"
    },
    {
      "anonymous": false,
      "inputs": [
        {
          "indexed": false,
          "name": "activityName",
          "type": "string"
        },
        {
          "indexed": false,
          "name": "addr",
          "type": "address"
        },
        {
          "indexed": false,
          "name": "email",
          "type": "string"
        },
        {
          "indexed": false,
          "name": "value",
          "type": "uint256"
        }
      ],
      "name": "ParticipantRegistered",
      "type": "event"
    },
    {
      "anonymous": false,
      "inputs": [
        {
          "indexed": false,
          "name": "activityName",
          "type": "string"
        },
        {
          "indexed": false,
          "name": "addr",
          "type": "address"
        },
        {
          "indexed": false,
          "name": "email",
          "type": "string"
        },
        {
          "indexed": false,
          "name": "value",
          "type": "uint256"
        }
      ],
      "name": "ParticipantDeleted",
      "type": "event"
    },
    {
      "anonymous": false,
      "inputs": [
        {
          "indexed": false,
          "name": "activityName",
          "type": "string"
        },
        {
          "indexed": false,
          "name": "addr",
          "type": "address"
        },
        {
          "indexed": false,
          "name": "email",
          "type": "string"
        },
        {
          "indexed": false,
          "name": "value",
          "type": "uint256"
        }
      ],
      "name": "ParticipantPayBack",
      "type": "event"
    },
    {
      "anonymous": false,
      "inputs": [
        {
          "indexed": true,
          "name": "previousOwner",
          "type": "address"
        },
        {
          "indexed": true,
          "name": "newOwner",
          "type": "address"
        }
      ],
      "name": "OwnershipTransferred",
      "type": "event"
    },
    {
      "constant": false,
      "inputs": [
        {
          "name": "email",
          "type": "string"
        }
      ],
      "name": "registerToActivity",
      "outputs": [],
      "payable": true,
      "stateMutability": "payable",
      "type": "function"
    },
    {
      "constant": true,
      "inputs": [
        {
          "name": "_addr",
          "type": "address"
        }
      ],
      "name": "isRegistered",
      "outputs": [
        {
          "name": "",
          "type": "bool"
        }
      ],
      "payable": false,
      "stateMutability": "view",
      "type": "function"
    },
    {
      "constant": true,
      "inputs": [],
      "name": "getMeParticipationUrl",
      "outputs": [
        {
          "name": "",
          "type": "string"
        }
      ],
      "payable": false,
      "stateMutability": "view",
      "type": "function"
    },
    {
      "constant": true,
      "inputs": [],
      "name": "getTotalCount",
      "outputs": [
        {
          "name": "",
          "type": "uint256"
        }
      ],
      "payable": false,
      "stateMutability": "view",
      "type": "function"
    },
    {
      "constant": true,
      "inputs": [],
      "name": "getParticipantLimit",
      "outputs": [
        {
          "name": "",
          "type": "uint256"
        }
      ],
      "payable": false,
      "stateMutability": "view",
      "type": "function"
    },
    {
      "constant": true,
      "inputs": [
        {
          "name": "idx",
          "type": "uint256"
        }
      ],
      "name": "getParticipiant",
      "outputs": [
        {
          "name": "index",
          "type": "uint256"
        },
        {
          "name": "email",
          "type": "string"
        },
        {
          "name": "addr",
          "type": "address"
        },
        {
          "name": "value",
          "type": "uint256"
        }
      ],
      "payable": false,
      "stateMutability": "view",
      "type": "function"
    },
    {
      "constant": false,
      "inputs": [
        {
          "name": "idx",
          "type": "uint256"
        }
      ],
      "name": "deleteParticipiant",
      "outputs": [],
      "payable": false,
      "stateMutability": "nonpayable",
      "type": "function"
    },
    {
      "constant": false,
      "inputs": [
        {
          "name": "idx",
          "type": "uint256"
        },
        {
          "name": "isValidated",
          "type": "bool"
        }
      ],
      "name": "validateStudentStatus",
      "outputs": [],
      "payable": false,
      "stateMutability": "nonpayable",
      "type": "function"
    },
    {
      "constant": false,
      "inputs": [
        {
          "name": "url",
          "type": "string"
        }
      ],
      "name": "setParticipationLink",
      "outputs": [],
      "payable": false,
      "stateMutability": "nonpayable",
      "type": "function"
    },
    {
      "constant": false,
      "inputs": [
        {
          "name": "_price",
          "type": "uint256"
        }
      ],
      "name": "setPrice",
      "outputs": [],
      "payable": false,
      "stateMutability": "nonpayable",
      "type": "function"
    },
    {
      "constant": true,
      "inputs": [],
      "name": "getPrice",
      "outputs": [
        {
          "name": "",
          "type": "uint256"
        }
      ],
      "payable": false,
      "stateMutability": "view",
      "type": "function"
    },
    {
      "constant": false,
      "inputs": [],
      "name": "closeParticipation",
      "outputs": [],
      "payable": false,
      "stateMutability": "nonpayable",
      "type": "function"
    },
    {
      "constant": false,
      "inputs": [],
      "name": "openParticipation",
      "outputs": [],
      "payable": false,
      "stateMutability": "nonpayable",
      "type": "function"
    },
    {
      "constant": false,
      "inputs": [],
      "name": "closePayBack",
      "outputs": [],
      "payable": false,
      "stateMutability": "nonpayable",
      "type": "function"
    },
    {
      "constant": false,
      "inputs": [],
      "name": "openPayBack",
      "outputs": [],
      "payable": false,
      "stateMutability": "nonpayable",
      "type": "function"
    },
    {
      "constant": false,
      "inputs": [
        {
          "name": "_key",
          "type": "string"
        }
      ],
      "name": "validateMeReturnMoney",
      "outputs": [],
      "payable": false,
      "stateMutability": "nonpayable",
      "type": "function"
    },
    {
      "constant": false,
      "inputs": [
        {
          "name": "_hash",
          "type": "bytes32"
        }
      ],
      "name": "setValidateNumber",
      "outputs": [],
      "payable": false,
      "stateMutability": "nonpayable",
      "type": "function"
    },
    {
      "constant": true,
      "inputs": [],
      "name": "getValidate",
      "outputs": [
        {
          "name": "",
          "type": "bytes32"
        }
      ],
      "payable": false,
      "stateMutability": "view",
      "type": "function"
    }
  ],
  "bytecode": "0x60806040523480156200001157600080fd5b5060405162001e8838038062001e888339810180604052810190808051906020019092919080518201929190505050336000806101000a81548173ffffffffffffffffffffffffffffffffffffffff021916908373ffffffffffffffffffffffffffffffffffffffff160217905550336000806101000a81548173ffffffffffffffffffffffffffffffffffffffff021916908373ffffffffffffffffffffffffffffffffffffffff1602179055508060019080519060200190620000d892919062000102565b50600082141515620000f15781600481905550620000fa565b601e6004819055505b5050620001b1565b828054600181600116156101000203166002900490600052602060002090601f016020900481019282601f106200014557805160ff191683800117855562000176565b8280016001018555821562000176579182015b828111156200017557825182559160200191906001019062000158565b5b50905062000185919062000189565b5090565b620001ae91905b80821115620001aa57600081600090555060010162000190565b5090565b90565b611cc780620001c16000396000f30060806040526004361061011d576000357c0100000000000000000000000000000000000000000000000000000000900463ffffffff16806301c01b35146101225780631cd4b7e21461013957806341c0e1b5146101a2578063431cd70e146101b957806356d42bb3146101d057806370c145bf146101fb5780638da5cb5b146102645780638f3488bb146102bb57806391b7f5ed146102ee57806398d5fdca1461031b578063a81c7d6014610346578063af987c8914610373578063b68c711d1461045a578063c3c5a54714610493578063cb4e8ae2146104ee578063cd312d051461051f578063d63eea9e1461054a578063d8ef4b68146105a6578063f2fde38b146105bd578063ff11f78014610600578063ff7cc8a514610690575b600080fd5b34801561012e57600080fd5b506101376106a7565b005b34801561014557600080fd5b506101a0600480360381019080803590602001908201803590602001908080601f016020809104026020016040519081016040528093929190818152602001838380828437820191505050505050919291929050505061071e565b005b3480156101ae57600080fd5b506101b7610793565b005b3480156101c557600080fd5b506101ce610828565b005b3480156101dc57600080fd5b506101e561089f565b6040518082815260200191505060405180910390f35b34801561020757600080fd5b50610262600480360381019080803590602001908201803590602001908080601f01602080910402602001604051908101604052809392919081815260200183838082843782019150505050505091929192905050506108a9565b005b34801561027057600080fd5b50610279610c02565b604051808273ffffffffffffffffffffffffffffffffffffffff1673ffffffffffffffffffffffffffffffffffffffff16815260200191505060405180910390f35b3480156102c757600080fd5b506102d0610c27565b60405180826000191660001916815260200191505060405180910390f35b3480156102fa57600080fd5b5061031960048036038101908080359060200190929190505050610c8c565b005b34801561032757600080fd5b50610330610cf1565b6040518082815260200191505060405180910390f35b34801561035257600080fd5b5061037160048036038101908080359060200190929190505050610cfb565b005b34801561037f57600080fd5b5061039e60048036038101908080359060200190929190505050611054565b60405180858152602001806020018473ffffffffffffffffffffffffffffffffffffffff1673ffffffffffffffffffffffffffffffffffffffff168152602001838152602001828103825285818151815260200191508051906020019080838360005b8381101561041c578082015181840152602081019050610401565b50505050905090810190601f1680156104495780820380516001836020036101000a031916815260200191505b509550505050505060405180910390f35b34801561046657600080fd5b506104916004803603810190808035906020019092919080351515906020019092919050505061120c565b005b34801561049f57600080fd5b506104d4600480360381019080803573ffffffffffffffffffffffffffffffffffffffff169060200190929190505050611303565b604051808215151515815260200191505060405180910390f35b3480156104fa57600080fd5b5061051d60048036038101908080356000191690602001909291905050506113f7565b005b34801561052b57600080fd5b5061053461147b565b6040518082815260200191505060405180910390f35b6105a4600480360381019080803590602001908201803590602001908080601f0160208091040260200160405190810160405280939291908181526020018383808284378201915050505050509192919290505050611485565b005b3480156105b257600080fd5b506105bb611800565b005b3480156105c957600080fd5b506105fe600480360381019080803573ffffffffffffffffffffffffffffffffffffffff169060200190929190505050611878565b005b34801561060c57600080fd5b506106156119cd565b6040518080602001828103825283818151815260200191508051906020019080838360005b8381101561065557808201518184015260208101905061063a565b50505050905090810190601f1680156106825780820380516001836020036101000a031916815260200191505b509250505060405180910390f35b34801561069c57600080fd5b506106a5611afe565b005b6000809054906101000a900473ffffffffffffffffffffffffffffffffffffffff1673ffffffffffffffffffffffffffffffffffffffff163373ffffffffffffffffffffffffffffffffffffffff1614151561070257600080fd5b60008060146101000a81548160ff021916908315150217905550565b6000809054906101000a900473ffffffffffffffffffffffffffffffffffffffff1673ffffffffffffffffffffffffffffffffffffffff163373ffffffffffffffffffffffffffffffffffffffff1614151561077957600080fd5b806002908051906020019061078f929190611b76565b5050565b6000809054906101000a900473ffffffffffffffffffffffffffffffffffffffff1673ffffffffffffffffffffffffffffffffffffffff163373ffffffffffffffffffffffffffffffffffffffff161415156107ee57600080fd5b6000809054906101000a900473ffffffffffffffffffffffffffffffffffffffff1673ffffffffffffffffffffffffffffffffffffffff16ff5b6000809054906101000a900473ffffffffffffffffffffffffffffffffffffffff1673ffffffffffffffffffffffffffffffffffffffff163373ffffffffffffffffffffffffffffffffffffffff1614151561088357600080fd5b60008060146101000a81548160ff021916908315150217905550565b6000600554905090565b60008060149054906101000a900460ff1615156108c557600080fd5b600060159054906101000a900460ff1615156108e057600080fd5b6108e933611303565b15156108f457600080fd5b816040518082805190602001908083835b60208310151561092a5780518252602082019150602081019050602083039250610905565b6001836020036101000a0380198251168184511680821785525050505050509050019150506040518091039020600019166003546000191614151561096e57600080fd5b600760003373ffffffffffffffffffffffffffffffffffffffff1673ffffffffffffffffffffffffffffffffffffffff16815260200190815260200160002090508060010160169054906101000a900460ff161515156109cd57600080fd5b8060010160019054906101000a900460ff161515156109eb57600080fd5b60018160010160016101000a81548160ff0219169083151502179055508060010160029054906101000a900473ffffffffffffffffffffffffffffffffffffffff1673ffffffffffffffffffffffffffffffffffffffff166108fc82600201549081150290604051600060405180830381858888f19350505050158015610a76573d6000803e3d6000fd5b507fc930faa7c886493aed0d178ae91eab1e9899ed09f1b532b2f175343a1dab73cb60013383600001846002015460405180806020018573ffffffffffffffffffffffffffffffffffffffff1673ffffffffffffffffffffffffffffffffffffffff16815260200180602001848152602001838103835287818154600181600116156101000203166002900481526020019150805460018160011615610100020316600290048015610b695780601f10610b3e57610100808354040283529160200191610b69565b820191906000526020600020905b815481529060010190602001808311610b4c57829003601f168201915b5050838103825285818154600181600116156101000203166002900481526020019150805460018160011615610100020316600290048015610bec5780601f10610bc157610100808354040283529160200191610bec565b820191906000526020600020905b815481529060010190602001808311610bcf57829003601f168201915b5050965050505050505060405180910390a15050565b6000809054906101000a900473ffffffffffffffffffffffffffffffffffffffff1681565b60008060009054906101000a900473ffffffffffffffffffffffffffffffffffffffff1673ffffffffffffffffffffffffffffffffffffffff163373ffffffffffffffffffffffffffffffffffffffff16141515610c8457600080fd5b600354905090565b6000809054906101000a900473ffffffffffffffffffffffffffffffffffffffff1673ffffffffffffffffffffffffffffffffffffffff163373ffffffffffffffffffffffffffffffffffffffff16141515610ce757600080fd5b8060068190555050565b6000600654905090565b6000806000809054906101000a900473ffffffffffffffffffffffffffffffffffffffff1673ffffffffffffffffffffffffffffffffffffffff163373ffffffffffffffffffffffffffffffffffffffff16141515610d5957600080fd5b6008600084815260200190815260200160002060009054906101000a900473ffffffffffffffffffffffffffffffffffffffff169150600760008373ffffffffffffffffffffffffffffffffffffffff1673ffffffffffffffffffffffffffffffffffffffff16815260200190815260200160002090508060010160169054906101000a900460ff16151515610dee57600080fd5b8060010160019054906101000a900460ff16151515610e0c57600080fd5b60018160010160166101000a81548160ff02191690831515021790555060018160010160016101000a81548160ff021916908315150217905550600560008154809291906001900391905055508060010160029054906101000a900473ffffffffffffffffffffffffffffffffffffffff1673ffffffffffffffffffffffffffffffffffffffff166108fc82600201549081150290604051600060405180830381858888f19350505050158015610ec7573d6000803e3d6000fd5b507f37cefeb6672816b8641971c69b02f587726bd8d1e1224b6e518062a225b33b3760013383600001846002015460405180806020018573ffffffffffffffffffffffffffffffffffffffff1673ffffffffffffffffffffffffffffffffffffffff16815260200180602001848152602001838103835287818154600181600116156101000203166002900481526020019150805460018160011615610100020316600290048015610fba5780601f10610f8f57610100808354040283529160200191610fba565b820191906000526020600020905b815481529060010190602001808311610f9d57829003601f168201915b505083810382528581815460018160011615610100020316600290048152602001915080546001816001161561010002031660029004801561103d5780601f106110125761010080835404028352916020019161103d565b820191906000526020600020905b81548152906001019060200180831161102057829003601f168201915b5050965050505050505060405180910390a1505050565b600060606000806000806000809054906101000a900473ffffffffffffffffffffffffffffffffffffffff1673ffffffffffffffffffffffffffffffffffffffff163373ffffffffffffffffffffffffffffffffffffffff161415156110b957600080fd5b6008600088815260200190815260200160002060009054906101000a900473ffffffffffffffffffffffffffffffffffffffff169150600760008373ffffffffffffffffffffffffffffffffffffffff1673ffffffffffffffffffffffffffffffffffffffff168152602001908152602001600020905086816000018260010160029054906101000a900473ffffffffffffffffffffffffffffffffffffffff168360020154828054600181600116156101000203166002900480601f0160208091040260200160405190810160405280929190818152602001828054600181600116156101000203166002900480156111f45780601f106111c9576101008083540402835291602001916111f4565b820191906000526020600020905b8154815290600101906020018083116111d757829003601f168201915b50505050509250955095509550955050509193509193565b6000806000809054906101000a900473ffffffffffffffffffffffffffffffffffffffff1673ffffffffffffffffffffffffffffffffffffffff163373ffffffffffffffffffffffffffffffffffffffff1614151561126a57600080fd5b6008600085815260200190815260200160002060009054906101000a900473ffffffffffffffffffffffffffffffffffffffff169150600760008373ffffffffffffffffffffffffffffffffffffffff1673ffffffffffffffffffffffffffffffffffffffff1681526020019081526020016000209050828160010160006101000a81548160ff02191690831515021790555050505050565b60008073ffffffffffffffffffffffffffffffffffffffff16600760008473ffffffffffffffffffffffffffffffffffffffff1673ffffffffffffffffffffffffffffffffffffffff16815260200190815260200160002060010160029054906101000a900473ffffffffffffffffffffffffffffffffffffffff1673ffffffffffffffffffffffffffffffffffffffff16141580156113f05750600760008373ffffffffffffffffffffffffffffffffffffffff1673ffffffffffffffffffffffffffffffffffffffff16815260200190815260200160002060010160169054906101000a900460ff16155b9050919050565b6000809054906101000a900473ffffffffffffffffffffffffffffffffffffffff1673ffffffffffffffffffffffffffffffffffffffff163373ffffffffffffffffffffffffffffffffffffffff1614151561145257600080fd5b600060149054906101000a900460ff16151561146d57600080fd5b806003816000191690555050565b6000600454905090565b600060149054906101000a900460ff1615156114a057600080fd5b6114a933611303565b1515156114b557600080fd5b6004546005541015156114c757600080fd5b600654341115156114d757600080fd5b60056000815480929190600101919050555060c0604051908101604052808281526020016000151581526020016000151581526020013373ffffffffffffffffffffffffffffffffffffffff16815260200160001515815260200134815250600760003373ffffffffffffffffffffffffffffffffffffffff1673ffffffffffffffffffffffffffffffffffffffff1681526020019081526020016000206000820151816000019080519060200190611591929190611bf6565b5060208201518160010160006101000a81548160ff02191690831515021790555060408201518160010160016101000a81548160ff02191690831515021790555060608201518160010160026101000a81548173ffffffffffffffffffffffffffffffffffffffff021916908373ffffffffffffffffffffffffffffffffffffffff16021790555060808201518160010160166101000a81548160ff02191690831515021790555060a082015181600201559050503360086000600554815260200190815260200160002060006101000a81548173ffffffffffffffffffffffffffffffffffffffff021916908373ffffffffffffffffffffffffffffffffffffffff1602179055507f23c36cf80b3a85770a92901f257786327f2b3844c386c401b8f0b270b3ef4614600133833460405180806020018573ffffffffffffffffffffffffffffffffffffffff1673ffffffffffffffffffffffffffffffffffffffff168152602001806020018481526020018381038352878181546001816001161561010002031660029004815260200191508054600181600116156101000203166002900480156117855780601f1061175a57610100808354040283529160200191611785565b820191906000526020600020905b81548152906001019060200180831161176857829003601f168201915b5050838103825285818151815260200191508051906020019080838360005b838110156117bf5780820151818401526020810190506117a4565b50505050905090810190601f1680156117ec5780820380516001836020036101000a031916815260200191505b50965050505050505060405180910390a150565b6000809054906101000a900473ffffffffffffffffffffffffffffffffffffffff1673ffffffffffffffffffffffffffffffffffffffff163373ffffffffffffffffffffffffffffffffffffffff1614151561185b57600080fd5b6001600060146101000a81548160ff021916908315150217905550565b6000809054906101000a900473ffffffffffffffffffffffffffffffffffffffff1673ffffffffffffffffffffffffffffffffffffffff163373ffffffffffffffffffffffffffffffffffffffff161415156118d357600080fd5b600073ffffffffffffffffffffffffffffffffffffffff168173ffffffffffffffffffffffffffffffffffffffff161415151561190f57600080fd5b8073ffffffffffffffffffffffffffffffffffffffff166000809054906101000a900473ffffffffffffffffffffffffffffffffffffffff1673ffffffffffffffffffffffffffffffffffffffff167f8be0079c531659141344cd1fd0a4f28419497f9722a3daafe3b4186f6b6457e060405160405180910390a3806000806101000a81548173ffffffffffffffffffffffffffffffffffffffff021916908373ffffffffffffffffffffffffffffffffffffffff16021790555050565b606060008060149054906101000a900460ff1615156119eb57600080fd5b6119f433611303565b15156119ff57600080fd5b600760003373ffffffffffffffffffffffffffffffffffffffff1673ffffffffffffffffffffffffffffffffffffffff16815260200190815260200160002090508060010160009054906101000a900460ff161515611a5d57600080fd5b60028054600181600116156101000203166002900480601f016020809104026020016040519081016040528092919081815260200182805460018160011615610100020316600290048015611af35780601f10611ac857610100808354040283529160200191611af3565b820191906000526020600020905b815481529060010190602001808311611ad657829003601f168201915b505050505091505090565b6000809054906101000a900473ffffffffffffffffffffffffffffffffffffffff1673ffffffffffffffffffffffffffffffffffffffff163373ffffffffffffffffffffffffffffffffffffffff16141515611b5957600080fd5b6001600060146101000a81548160ff021916908315150217905550565b828054600181600116156101000203166002900490600052602060002090601f016020900481019282601f10611bb757805160ff1916838001178555611be5565b82800160010185558215611be5579182015b82811115611be4578251825591602001919060010190611bc9565b5b509050611bf29190611c76565b5090565b828054600181600116156101000203166002900490600052602060002090601f016020900481019282601f10611c3757805160ff1916838001178555611c65565b82800160010185558215611c65579182015b82811115611c64578251825591602001919060010190611c49565b5b509050611c729190611c76565b5090565b611c9891905b80821115611c94576000816000905550600101611c7c565b5090565b905600a165627a7a7230582026975166f1f93f159f0c7d11ae6fc2713d4738eb893b5e77b18b107d0d233c5d0029",
  "source": "pragma solidity ^0.4.4;\n\nimport \"./Ownable.sol\";\n\ncontract Activity is Ownable\n{\n\n\n    string   activityName;\n\n    string   private participationUrl ;//we should change this ,string is visible :)\n    bytes32  private validateNumber ;//this is a hash  to participant verify themselves for payback money\n\n\n    uint participantLimit;\n    uint registeredUserCount;\n    uint price;\n\n    mapping(address => Participant) participants;\n    mapping(uint => address) participantIndex;\n\n    struct Participant {\n        string email;\n        bool validated;\n        bool payBack;\n        address addr;\n        bool deleted;\n        uint256 value;\n    }\n\n    event ParticipantRegistered(string activityName,address addr, string email,uint value);\n    event ParticipantDeleted(string activityName, address addr, string email,uint value);\n    event ParticipantPayBack(string activityName, address addr, string email,uint value);\n\n\n    function Activity(uint _participantLimit,string _activityName) public {\n        owner = msg.sender;\n        activityName=_activityName;\n\n        if (_participantLimit != 0) {\n            participantLimit = _participantLimit;\n        } else {\n            participantLimit = 30;\n        }\n    }\n\n\n\n    function registerToActivity(string email) onlyActive\n    payable\n    public {\n        require(!isRegistered(msg.sender));\n        require(registeredUserCount < participantLimit);\n\n        require(msg.value > price); //price control\n\n        registeredUserCount++;\n        participants[msg.sender] = Participant(email, false,false, msg.sender, false,msg.value);\n        participantIndex[registeredUserCount] = msg.sender;\n\n        ParticipantRegistered(activityName,msg.sender, email,msg.value);\n    }\n\n    function isRegistered(address _addr) public constant returns (bool) {\n        return participants[_addr].addr != address(0) && !participants[_addr].deleted;\n    }\n\n    function getMeParticipationUrl() public\n    onlyActive\n    constant returns (string) {\n        require(isRegistered(msg.sender));\n        Participant storage participant = participants[msg.sender];\n        require(participant.validated);\n        return participationUrl;\n    }\n\n    function getTotalCount() public constant returns (uint) {\n        return registeredUserCount;\n    }\n\n    function getParticipantLimit() public constant returns (uint) {\n        return participantLimit;\n    }\n\n\n    //Admin methods\n    function getParticipiant(uint idx) public constant onlyOwner\n    returns (uint index, string email, address addr,uint256 value) {\n        address userAddr = participantIndex[idx];\n        Participant storage participant = participants[userAddr];\n        return (idx, participant.email, participant.addr,participant.value);\n    }\n\n    function deleteParticipiant(uint idx) public onlyOwner {\n        address userAddr = participantIndex[idx];\n        Participant storage participant = participants[userAddr];\n\n\n        require(!participant.deleted); //is not deleted\n        require(!participant.payBack);  //is not payBack\n\n        participant.deleted = true;\n        participant.payBack=true;\n        registeredUserCount--;\n\n        participant.addr.transfer(participant.value);//if is it fail ,throws on failure\n        ParticipantDeleted(activityName,msg.sender,participant.email,participant.value);\n\n    }\n\n    function validateStudentStatus(uint idx, bool isValidated) public onlyOwner {\n        address userAddr = participantIndex[idx];\n        Participant storage participant = participants[userAddr];\n        participant.validated = isValidated;\n    }\n\n\n    // if we will share invitation link like this,we must change this method because string is visibile on blockexplorer :)\n    function setParticipationLink(string url) public onlyOwner {\n        participationUrl = url;\n    }\n\n    function setPrice(uint _price) public onlyOwner {\n        price = _price;\n    }\n    function getPrice() public view returns(uint) {\n        return price;\n    }\n\n    function closeParticipation() public onlyOwner {\n        isActive = false;\n    }\n\n    function openParticipation() public onlyOwner {\n        isActive = true;\n    }\n\n    function closePayBack() public onlyOwner {\n        isActive = false;\n    }\n\n    function openPayBack() public onlyOwner {\n        isActive = true;\n    }\n\n\n    //only Owner set validateNumber=keccak256(key), during lesson we will share only key to participants\n    function validateMeReturnMoney(string _key) public\n    onlyActive\n    onlyPayActive\n    {\n        require(isRegistered(msg.sender));\n        require(validateNumber==keccak256(_key));\n\n        Participant storage participant = participants[msg.sender];\n\n        require(!participant.deleted); //is not deleted\n        require(!participant.payBack);  //is not payBack\n\n\n        participant.payBack=true;\n\n        participant.addr.transfer(participant.value);//if is it fail ,throws on failure\n        ParticipantPayBack(activityName,msg.sender,participant.email,participant.value);\n\n\n    }\n    function setValidateNumber(bytes32 _hash) public\n    onlyOwner\n    onlyActive{\n        validateNumber=_hash;\n    }\n    function getValidate() onlyOwner public view returns(bytes32)\n    {\n        return validateNumber;\n    }\n\n}\n",
  "sourcePath": "/Users/fatih/Desktop/ether-registration/contracts/oldversion.sol",
  "compiler": {
    "name": "solc",
    "version": "0.4.23+commit.124ca40d.Emscripten.clang"
  },
  "schemaVersion": "2.0.0",
  "updatedAt": "2018-06-22T11:37:19.552Z"
}