{
  "contractName": "Activitycontract",
  "abi": [
    {
      "constant": false,
      "inputs": [],
      "name": "kill",
      "outputs": [],
      "payable": false,
      "stateMutability": "nonpayable",
      "type": "function"
    },
    {
      "constant": true,
      "inputs": [],
      "name": "owner",
      "outputs": [
        {
          "name": "",
          "type": "address"
        }
      ],
      "payable": false,
      "stateMutability": "view",
      "type": "function"
    },
    {
      "constant": false,
      "inputs": [
        {
          "name": "newOwner",
          "type": "address"
        }
      ],
      "name": "transferOwnership",
      "outputs": [],
      "payable": false,
      "stateMutability": "nonpayable",
      "type": "function"
    },
    {
      "inputs": [
        {
          "name": "_isActive",
          "type": "bool"
        },
        {
          "name": "_isPayActive",
          "type": "bool"
        }
      ],
      "payable": false,
      "stateMutability": "nonpayable",
      "type": "constructor"
    },
    {
      "anonymous": false,
      "inputs": [
        {
          "indexed": false,
          "name": "name",
          "type": "string"
        },
        {
          "indexed": false,
          "name": "_Owner",
          "type": "address"
        },
        {
          "indexed": false,
          "name": "usr",
          "type": "address"
        },
        {
          "indexed": false,
          "name": "email",
          "type": "string"
        },
        {
          "indexed": false,
          "name": "value",
          "type": "uint256"
        }
      ],
      "name": "ParticipantRegisteredAt",
      "type": "event"
    },
    {
      "anonymous": false,
      "inputs": [
        {
          "indexed": false,
          "name": "name",
          "type": "string"
        },
        {
          "indexed": false,
          "name": "_Owner",
          "type": "address"
        },
        {
          "indexed": false,
          "name": "usr",
          "type": "address"
        },
        {
          "indexed": false,
          "name": "email",
          "type": "string"
        },
        {
          "indexed": false,
          "name": "value",
          "type": "uint256"
        }
      ],
      "name": "ParticipantDeletedAt",
      "type": "event"
    },
    {
      "anonymous": false,
      "inputs": [
        {
          "indexed": false,
          "name": "name",
          "type": "string"
        },
        {
          "indexed": false,
          "name": "_Owner",
          "type": "address"
        },
        {
          "indexed": false,
          "name": "usr",
          "type": "address"
        },
        {
          "indexed": false,
          "name": "email",
          "type": "string"
        },
        {
          "indexed": false,
          "name": "value",
          "type": "uint256"
        }
      ],
      "name": "ParticipantPayBackAt",
      "type": "event"
    },
    {
      "anonymous": false,
      "inputs": [
        {
          "indexed": false,
          "name": "_name",
          "type": "string"
        },
        {
          "indexed": false,
          "name": "_owner",
          "type": "address"
        },
        {
          "indexed": false,
          "name": "_limit",
          "type": "uint256"
        },
        {
          "indexed": false,
          "name": "_date",
          "type": "uint256"
        }
      ],
      "name": "ActivityCreated",
      "type": "event"
    },
    {
      "anonymous": false,
      "inputs": [
        {
          "indexed": false,
          "name": "_name",
          "type": "string"
        },
        {
          "indexed": true,
          "name": "previousOwner",
          "type": "address"
        },
        {
          "indexed": true,
          "name": "newOwner",
          "type": "address"
        }
      ],
      "name": "OwnershipTransferred",
      "type": "event"
    },
    {
      "anonymous": false,
      "inputs": [
        {
          "indexed": true,
          "name": "previousOwner",
          "type": "address"
        },
        {
          "indexed": true,
          "name": "newOwner",
          "type": "address"
        }
      ],
      "name": "OwnershipTransferred",
      "type": "event"
    },
    {
      "constant": false,
      "inputs": [
        {
          "name": "_name",
          "type": "string"
        },
        {
          "name": "_limit",
          "type": "uint256"
        },
        {
          "name": "_price",
          "type": "uint256"
        },
        {
          "name": "_date",
          "type": "uint256"
        },
        {
          "name": "_content",
          "type": "string"
        },
        {
          "name": "_hash",
          "type": "string"
        }
      ],
      "name": "createActivity",
      "outputs": [],
      "payable": true,
      "stateMutability": "payable",
      "type": "function"
    },
    {
      "constant": false,
      "inputs": [
        {
          "name": "_activity",
          "type": "address"
        },
        {
          "name": "_email",
          "type": "string"
        }
      ],
      "name": "registerToActivity",
      "outputs": [],
      "payable": true,
      "stateMutability": "payable",
      "type": "function"
    },
    {
      "constant": true,
      "inputs": [
        {
          "name": "_activity",
          "type": "address"
        },
        {
          "name": "_partipantaddr",
          "type": "address"
        }
      ],
      "name": "isRegistered",
      "outputs": [
        {
          "name": "",
          "type": "bool"
        }
      ],
      "payable": false,
      "stateMutability": "view",
      "type": "function"
    },
    {
      "constant": true,
      "inputs": [
        {
          "name": "_activity",
          "type": "address"
        }
      ],
      "name": "getParticipationUrl",
      "outputs": [
        {
          "name": "",
          "type": "string"
        }
      ],
      "payable": false,
      "stateMutability": "view",
      "type": "function"
    },
    {
      "constant": true,
      "inputs": [],
      "name": "getTotalActivity",
      "outputs": [
        {
          "name": "",
          "type": "uint256"
        }
      ],
      "payable": false,
      "stateMutability": "view",
      "type": "function"
    },
    {
      "constant": true,
      "inputs": [
        {
          "name": "_activity",
          "type": "address"
        }
      ],
      "name": "getTotalParticipant",
      "outputs": [
        {
          "name": "",
          "type": "uint256"
        }
      ],
      "payable": false,
      "stateMutability": "view",
      "type": "function"
    },
    {
      "constant": true,
      "inputs": [
        {
          "name": "_activity",
          "type": "address"
        }
      ],
      "name": "getLimit",
      "outputs": [
        {
          "name": "",
          "type": "uint256"
        }
      ],
      "payable": false,
      "stateMutability": "view",
      "type": "function"
    },
    {
      "constant": true,
      "inputs": [
        {
          "name": "_activity",
          "type": "address"
        }
      ],
      "name": "leaveActivity",
      "outputs": [],
      "payable": false,
      "stateMutability": "view",
      "type": "function"
    },
    {
      "constant": true,
      "inputs": [
        {
          "name": "_activity",
          "type": "address"
        }
      ],
      "name": "getInfoActivity",
      "outputs": [
        {
          "name": "",
          "type": "string"
        },
        {
          "name": "",
          "type": "address"
        },
        {
          "name": "",
          "type": "bool"
        },
        {
          "name": "",
          "type": "uint256"
        },
        {
          "name": "",
          "type": "uint256"
        },
        {
          "name": "",
          "type": "uint256"
        },
        {
          "name": "",
          "type": "uint256"
        },
        {
          "name": "",
          "type": "string"
        },
        {
          "name": "",
          "type": "string"
        }
      ],
      "payable": false,
      "stateMutability": "view",
      "type": "function"
    },
    {
      "constant": true,
      "inputs": [
        {
          "name": "_activity",
          "type": "address"
        },
        {
          "name": "idx",
          "type": "uint256"
        }
      ],
      "name": "getParticipiant",
      "outputs": [
        {
          "name": "index",
          "type": "uint256"
        },
        {
          "name": "email",
          "type": "string"
        },
        {
          "name": "addr",
          "type": "address"
        },
        {
          "name": "value",
          "type": "uint256"
        }
      ],
      "payable": false,
      "stateMutability": "view",
      "type": "function"
    },
    {
      "constant": false,
      "inputs": [
        {
          "name": "_activity",
          "type": "address"
        },
        {
          "name": "idx",
          "type": "uint256"
        }
      ],
      "name": "deleteParticipiant",
      "outputs": [],
      "payable": false,
      "stateMutability": "nonpayable",
      "type": "function"
    },
    {
      "constant": false,
      "inputs": [
        {
          "name": "_activity",
          "type": "address"
        },
        {
          "name": "idx",
          "type": "uint256"
        },
        {
          "name": "isValidated",
          "type": "bool"
        }
      ],
      "name": "validateStudentStatus",
      "outputs": [],
      "payable": false,
      "stateMutability": "nonpayable",
      "type": "function"
    },
    {
      "constant": false,
      "inputs": [
        {
          "name": "_activity",
          "type": "address"
        },
        {
          "name": "url",
          "type": "string"
        }
      ],
      "name": "setParticipationLink",
      "outputs": [],
      "payable": false,
      "stateMutability": "nonpayable",
      "type": "function"
    },
    {
      "constant": false,
      "inputs": [
        {
          "name": "_activity",
          "type": "address"
        },
        {
          "name": "_price",
          "type": "uint256"
        }
      ],
      "name": "setPrice",
      "outputs": [],
      "payable": false,
      "stateMutability": "nonpayable",
      "type": "function"
    },
    {
      "constant": true,
      "inputs": [
        {
          "name": "_activity",
          "type": "address"
        }
      ],
      "name": "getPrice",
      "outputs": [
        {
          "name": "",
          "type": "uint256"
        }
      ],
      "payable": false,
      "stateMutability": "view",
      "type": "function"
    },
    {
      "constant": false,
      "inputs": [
        {
          "name": "_activity",
          "type": "address"
        }
      ],
      "name": "closeParticipation",
      "outputs": [],
      "payable": false,
      "stateMutability": "nonpayable",
      "type": "function"
    },
    {
      "constant": false,
      "inputs": [
        {
          "name": "_activity",
          "type": "address"
        }
      ],
      "name": "openParticipation",
      "outputs": [],
      "payable": false,
      "stateMutability": "nonpayable",
      "type": "function"
    },
    {
      "constant": false,
      "inputs": [
        {
          "name": "_activity",
          "type": "address"
        }
      ],
      "name": "closePayActive",
      "outputs": [],
      "payable": false,
      "stateMutability": "nonpayable",
      "type": "function"
    },
    {
      "constant": false,
      "inputs": [
        {
          "name": "_activity",
          "type": "address"
        }
      ],
      "name": "openPayActive",
      "outputs": [],
      "payable": false,
      "stateMutability": "nonpayable",
      "type": "function"
    },
    {
      "constant": false,
      "inputs": [
        {
          "name": "_activity",
          "type": "address"
        },
        {
          "name": "_key",
          "type": "string"
        }
      ],
      "name": "validateMeReturnMoney",
      "outputs": [],
      "payable": false,
      "stateMutability": "nonpayable",
      "type": "function"
    },
    {
      "constant": false,
      "inputs": [
        {
          "name": "_activity",
          "type": "address"
        },
        {
          "name": "_hash",
          "type": "bytes32"
        }
      ],
      "name": "setValidateHash",
      "outputs": [],
      "payable": false,
      "stateMutability": "nonpayable",
      "type": "function"
    },
    {
      "constant": true,
      "inputs": [
        {
          "name": "_activity",
          "type": "address"
        }
      ],
      "name": "getValidateHash",
      "outputs": [
        {
          "name": "",
          "type": "bytes32"
        }
      ],
      "payable": false,
      "stateMutability": "view",
      "type": "function"
    },
    {
      "constant": false,
      "inputs": [
        {
          "name": "_activity",
          "type": "address"
        },
        {
          "name": "newOwner",
          "type": "address"
        }
      ],
      "name": "transferOwnershipActivity",
      "outputs": [],
      "payable": false,
      "stateMutability": "nonpayable",
      "type": "function"
    },
    {
      "constant": true,
      "inputs": [
        {
          "name": "_activity",
          "type": "address"
        }
      ],
      "name": "getName",
      "outputs": [
        {
          "name": "",
          "type": "string"
        }
      ],
      "payable": false,
      "stateMutability": "view",
      "type": "function"
    },
    {
      "constant": true,
      "inputs": [],
      "name": "getActive",
      "outputs": [
        {
          "name": "",
          "type": "bool"
        }
      ],
      "payable": false,
      "stateMutability": "view",
      "type": "function"
    },
    {
      "constant": false,
      "inputs": [],
      "name": "setActive",
      "outputs": [],
      "payable": false,
      "stateMutability": "nonpayable",
      "type": "function"
    }
  ],
  "bytecode": "0x608060405234801561001057600080fd5b50604051604080613b7e8339810180604052810190808051906020019092919080519060200190929190505050336000806101000a81548173ffffffffffffffffffffffffffffffffffffffff021916908373ffffffffffffffffffffffffffffffffffffffff160217905550336000806101000a81548173ffffffffffffffffffffffffffffffffffffffff021916908373ffffffffffffffffffffffffffffffffffffffff16021790555081600060146101000a81548160ff02191690831515021790555080600060156101000a81548160ff0219169083151502179055505050613a7c806101026000396000f300608060405260043610610173576000357c0100000000000000000000000000000000000000000000000000000000900463ffffffff1680629ebb1014610178578062e4768b146101a757806316926292146101f45780631ce28e72146103e25780633bf41e0714610439578063414511031461054057806341976e09146105c957806341c0e1b514610620578063424ad0c31461063757806357a16874146106f35780635e0e348f146107525780635fd4b08a146107a9578063605b7a2c1461086557806370040a7e146108a857806370acd3a3146108eb578063760a8c2a14610974578063873f731c1461098b5780638da5cb5b146109ce5780639b867f6914610a25578063af45c90614610a68578063b9cfebb314610a93578063d3da927f14610b99578063d995a86014610c14578063e275a7d814610c77578063e94605c114610cba578063ee43737e14610d07578063f2fde38b14610d60578063f6ef5b5a14610da3578063f77c4f5214610df4575b600080fd5b34801561018457600080fd5b5061018d610e70565b604051808215151515815260200191505060405180910390f35b3480156101b357600080fd5b506101f2600480360381019080803573ffffffffffffffffffffffffffffffffffffffff16906020019092919080359060200190929190505050610e86565b005b34801561020057600080fd5b50610235600480360381019080803573ffffffffffffffffffffffffffffffffffffffff169060200190929190505050610f8a565b60405180806020018a73ffffffffffffffffffffffffffffffffffffffff1673ffffffffffffffffffffffffffffffffffffffff16815260200189151515158152602001888152602001878152602001868152602001858152602001806020018060200184810384528d818151815260200191508051906020019080838360005b838110156102d15780820151818401526020810190506102b6565b50505050905090810190601f1680156102fe5780820380516001836020036101000a031916815260200191505b50848103835286818151815260200191508051906020019080838360005b8381101561033757808201518184015260208101905061031c565b50505050905090810190601f1680156103645780820380516001836020036101000a031916815260200191505b50848103825285818151815260200191508051906020019080838360005b8381101561039d578082015181840152602081019050610382565b50505050905090810190601f1680156103ca5780820380516001836020036101000a031916815260200191505b509c5050505050505050505050505060405180910390f35b3480156103ee57600080fd5b50610423600480360381019080803573ffffffffffffffffffffffffffffffffffffffff169060200190929190505050611226565b6040518082815260200191505060405180910390f35b34801561044557600080fd5b50610484600480360381019080803573ffffffffffffffffffffffffffffffffffffffff16906020019092919080359060200190929190505050611272565b60405180858152602001806020018473ffffffffffffffffffffffffffffffffffffffff1673ffffffffffffffffffffffffffffffffffffffff168152602001838152602001828103825285818151815260200191508051906020019080838360005b838110156105025780820151818401526020810190506104e7565b50505050905090810190601f16801561052f5780820380516001836020036101000a031916815260200191505b509550505050505060405180910390f35b34801561054c57600080fd5b506105c7600480360381019080803573ffffffffffffffffffffffffffffffffffffffff169060200190929190803590602001908201803590602001908080601f01602080910402602001604051908101604052809392919081815260200183838082843782019150505050505091929192905050506114d1565b005b3480156105d557600080fd5b5061060a600480360381019080803573ffffffffffffffffffffffffffffffffffffffff169060200190929190505050611913565b6040518082815260200191505060405180910390f35b34801561062c57600080fd5b5061063561195f565b005b34801561064357600080fd5b50610678600480360381019080803573ffffffffffffffffffffffffffffffffffffffff1690602001909291905050506119f4565b6040518080602001828103825283818151815260200191508051906020019080838360005b838110156106b857808201518184015260208101905061069d565b50505050905090810190601f1680156106e55780820380516001836020036101000a031916815260200191505b509250505060405180910390f35b3480156106ff57600080fd5b50610734600480360381019080803573ffffffffffffffffffffffffffffffffffffffff169060200190929190505050611c00565b60405180826000191660001916815260200191505060405180910390f35b34801561075e57600080fd5b50610793600480360381019080803573ffffffffffffffffffffffffffffffffffffffff169060200190929190505050611cea565b6040518082815260200191505060405180910390f35b3480156107b557600080fd5b506107ea600480360381019080803573ffffffffffffffffffffffffffffffffffffffff169060200190929190505050611d36565b6040518080602001828103825283818151815260200191508051906020019080838360005b8381101561082a57808201518184015260208101905061080f565b50505050905090810190601f1680156108575780820380516001836020036101000a031916815260200191505b509250505060405180910390f35b34801561087157600080fd5b506108a6600480360381019080803573ffffffffffffffffffffffffffffffffffffffff169060200190929190505050611e1a565b005b3480156108b457600080fd5b506108e9600480360381019080803573ffffffffffffffffffffffffffffffffffffffff169060200190929190505050611f31565b005b3480156108f757600080fd5b50610972600480360381019080803573ffffffffffffffffffffffffffffffffffffffff169060200190929190803590602001908201803590602001908080601f0160208091040260200160405190810160405280939291908181526020018383808284378201915050505050509192919290505050611fc1565b005b34801561098057600080fd5b506109896120d5565b005b34801561099757600080fd5b506109cc600480360381019080803573ffffffffffffffffffffffffffffffffffffffff16906020019092919050505061214d565b005b3480156109da57600080fd5b506109e3612263565b604051808273ffffffffffffffffffffffffffffffffffffffff1673ffffffffffffffffffffffffffffffffffffffff16815260200191505060405180910390f35b348015610a3157600080fd5b50610a66600480360381019080803573ffffffffffffffffffffffffffffffffffffffff169060200190929190505050612288565b005b348015610a7457600080fd5b50610a7d61239e565b6040518082815260200191505060405180910390f35b610b97600480360381019080803590602001908201803590602001908080601f0160208091040260200160405190810160405280939291908181526020018383808284378201915050505050509192919290803590602001909291908035906020019092919080359060200190929190803590602001908201803590602001908080601f0160208091040260200160405190810160405280939291908181526020018383808284378201915050505050509192919290803590602001908201803590602001908080601f01602080910402602001604051908101604052809392919081815260200183838082843782019150505050505091929192905050506123a8565b005b348015610ba557600080fd5b50610bfa600480360381019080803573ffffffffffffffffffffffffffffffffffffffff169060200190929190803573ffffffffffffffffffffffffffffffffffffffff169060200190929190505050612728565b604051808215151515815260200191505060405180910390f35b348015610c2057600080fd5b50610c75600480360381019080803573ffffffffffffffffffffffffffffffffffffffff169060200190929190803573ffffffffffffffffffffffffffffffffffffffff1690602001909291905050506128c2565b005b348015610c8357600080fd5b50610cb8600480360381019080803573ffffffffffffffffffffffffffffffffffffffff169060200190929190505050612b4c565b005b348015610cc657600080fd5b50610d05600480360381019080803573ffffffffffffffffffffffffffffffffffffffff16906020019092919080359060200190929190505050612c63565b005b348015610d1357600080fd5b50610d5e600480360381019080803573ffffffffffffffffffffffffffffffffffffffff1690602001909291908035906020019092919080351515906020019092919050505061309a565b005b348015610d6c57600080fd5b50610da1600480360381019080803573ffffffffffffffffffffffffffffffffffffffff169060200190929190505050613237565b005b348015610daf57600080fd5b50610df2600480360381019080803573ffffffffffffffffffffffffffffffffffffffff169060200190929190803560001916906020019092919050505061338c565b005b610e6e600480360381019080803573ffffffffffffffffffffffffffffffffffffffff169060200190929190803590602001908201803590602001908080601f0160208091040260200160405190810160405280939291908181526020018383808284378201915050505050509192919290505050613499565b005b60008060149054906101000a900460ff16905090565b600060149054906101000a900460ff161515610ea157600080fd5b813373ffffffffffffffffffffffffffffffffffffffff16600160008373ffffffffffffffffffffffffffffffffffffffff1673ffffffffffffffffffffffffffffffffffffffff16815260200190815260200160002060010160009054906101000a900473ffffffffffffffffffffffffffffffffffffffff1673ffffffffffffffffffffffffffffffffffffffff16141515610f3e57600080fd5b81600160008573ffffffffffffffffffffffffffffffffffffffff1673ffffffffffffffffffffffffffffffffffffffff16815260200190815260200160002060020181905550505050565b60606000806000806000806060806000600160008c73ffffffffffffffffffffffffffffffffffffffff1673ffffffffffffffffffffffffffffffffffffffff1681526020019081526020016000209050806000018160010160009054906101000a900473ffffffffffffffffffffffffffffffffffffffff168260010160149054906101000a900460ff1683600201548460040154856003015486600501548760060188600701888054600181600116156101000203166002900480601f0160208091040260200160405190810160405280929190818152602001828054600181600116156101000203166002900480156110c75780601f1061109c576101008083540402835291602001916110c7565b820191906000526020600020905b8154815290600101906020018083116110aa57829003601f168201915b50505050509850818054600181600116156101000203166002900480601f0160208091040260200160405190810160405280929190818152602001828054600181600116156101000203166002900480156111635780601f1061113857610100808354040283529160200191611163565b820191906000526020600020905b81548152906001019060200180831161114657829003601f168201915b50505050509150808054600181600116156101000203166002900480601f0160208091040260200160405190810160405280929190818152602001828054600181600116156101000203166002900480156111ff5780601f106111d4576101008083540402835291602001916111ff565b820191906000526020600020905b8154815290600101906020018083116111e257829003601f168201915b50505050509050995099509950995099509950995099509950509193959799909294969850565b6000600160008373ffffffffffffffffffffffffffffffffffffffff1673ffffffffffffffffffffffffffffffffffffffff168152602001908152602001600020600301549050919050565b6000606060008060008060008060149054906101000a900460ff16151561129857600080fd5b883373ffffffffffffffffffffffffffffffffffffffff16600160008373ffffffffffffffffffffffffffffffffffffffff1673ffffffffffffffffffffffffffffffffffffffff16815260200190815260200160002060010160009054906101000a900473ffffffffffffffffffffffffffffffffffffffff1673ffffffffffffffffffffffffffffffffffffffff1614151561133557600080fd5b600160008b73ffffffffffffffffffffffffffffffffffffffff1673ffffffffffffffffffffffffffffffffffffffff168152602001908152602001600020935083600b0160008a815260200190815260200160002060009054906101000a900473ffffffffffffffffffffffffffffffffffffffff16925083600a0160008473ffffffffffffffffffffffffffffffffffffffff1673ffffffffffffffffffffffffffffffffffffffff168152602001908152602001600020915088826000018360010160029054906101000a900473ffffffffffffffffffffffffffffffffffffffff168460020154828054600181600116156101000203166002900480601f0160208091040260200160405190810160405280929190818152602001828054600181600116156101000203166002900480156114b55780601f1061148a576101008083540402835291602001916114b5565b820191906000526020600020905b81548152906001019060200180831161149857829003601f168201915b5050505050925097509750975097505050505092959194509250565b600080600060149054906101000a900460ff1615156114ef57600080fd5b83600160008273ffffffffffffffffffffffffffffffffffffffff1673ffffffffffffffffffffffffffffffffffffffff16815260200190815260200160002060010160149054906101000a900460ff16151561154b57600080fd5b6115558533612728565b151561156057600080fd5b600160008673ffffffffffffffffffffffffffffffffffffffff1673ffffffffffffffffffffffffffffffffffffffff1681526020019081526020016000209250836040518082805190602001908083835b6020831015156115d757805182526020820191506020810190506020830392506115b2565b6001836020036101000a03801982511681845116808217855250505050505090500191505060405180910390206000191683600901546000191614151561161d57600080fd5b82600a0160003373ffffffffffffffffffffffffffffffffffffffff1673ffffffffffffffffffffffffffffffffffffffff16815260200190815260200160002091508160010160169054906101000a900460ff1615151561167e57600080fd5b8160010160019054906101000a900460ff1615151561169c57600080fd5b60018260010160016101000a81548160ff0219169083151502179055508160010160029054906101000a900473ffffffffffffffffffffffffffffffffffffffff1673ffffffffffffffffffffffffffffffffffffffff166108fc60068460020154029081150290604051600060405180830381858888f1935050505015801561172a573d6000803e3d6000fd5b507f2d273dc18b4f1672ab5d33e98c00245d4f38c3a1c510cd1426d3f45bfbc443b0836000018460010160009054906101000a900473ffffffffffffffffffffffffffffffffffffffff163385600001866002015460405180806020018673ffffffffffffffffffffffffffffffffffffffff1673ffffffffffffffffffffffffffffffffffffffff1681526020018573ffffffffffffffffffffffffffffffffffffffff1673ffffffffffffffffffffffffffffffffffffffff168152602001806020018481526020018381038352888181546001816001161561010002031660029004815260200191508054600181600116156101000203166002900480156118765780601f1061184b57610100808354040283529160200191611876565b820191906000526020600020905b81548152906001019060200180831161185957829003601f168201915b50508381038252858181546001816001161561010002031660029004815260200191508054600181600116156101000203166002900480156118f95780601f106118ce576101008083540402835291602001916118f9565b820191906000526020600020905b8154815290600101906020018083116118dc57829003601f168201915b505097505050505050505060405180910390a15050505050565b6000600160008373ffffffffffffffffffffffffffffffffffffffff1673ffffffffffffffffffffffffffffffffffffffff168152602001908152602001600020600201549050919050565b6000809054906101000a900473ffffffffffffffffffffffffffffffffffffffff1673ffffffffffffffffffffffffffffffffffffffff163373ffffffffffffffffffffffffffffffffffffffff161415156119ba57600080fd5b6000809054906101000a900473ffffffffffffffffffffffffffffffffffffffff1673ffffffffffffffffffffffffffffffffffffffff16ff5b6060600060149054906101000a900460ff161515611a1157600080fd5b81600160008273ffffffffffffffffffffffffffffffffffffffff1673ffffffffffffffffffffffffffffffffffffffff16815260200190815260200160002060010160149054906101000a900460ff161515611a6d57600080fd5b611a778333612728565b1515611a8257600080fd5b600160008473ffffffffffffffffffffffffffffffffffffffff1673ffffffffffffffffffffffffffffffffffffffff168152602001908152602001600020600a0160003373ffffffffffffffffffffffffffffffffffffffff1673ffffffffffffffffffffffffffffffffffffffff16815260200190815260200160002060010160009054906101000a900460ff161515611b1d57600080fd5b600160008473ffffffffffffffffffffffffffffffffffffffff1673ffffffffffffffffffffffffffffffffffffffff1681526020019081526020016000206008018054600181600116156101000203166002900480601f016020809104026020016040519081016040528092919081815260200182805460018160011615610100020316600290048015611bf35780601f10611bc857610100808354040283529160200191611bf3565b820191906000526020600020905b815481529060010190602001808311611bd657829003601f168201915b5050505050915050919050565b6000813373ffffffffffffffffffffffffffffffffffffffff16600160008373ffffffffffffffffffffffffffffffffffffffff1673ffffffffffffffffffffffffffffffffffffffff16815260200190815260200160002060010160009054906101000a900473ffffffffffffffffffffffffffffffffffffffff1673ffffffffffffffffffffffffffffffffffffffff16141515611c9f57600080fd5b600160008473ffffffffffffffffffffffffffffffffffffffff1673ffffffffffffffffffffffffffffffffffffffff16815260200190815260200160002060090154915050919050565b6000600160008373ffffffffffffffffffffffffffffffffffffffff1673ffffffffffffffffffffffffffffffffffffffff168152602001908152602001600020600401549050919050565b6060600160008373ffffffffffffffffffffffffffffffffffffffff1673ffffffffffffffffffffffffffffffffffffffff1681526020019081526020016000206000018054600181600116156101000203166002900480601f016020809104026020016040519081016040528092919081815260200182805460018160011615610100020316600290048015611e0e5780601f10611de357610100808354040283529160200191611e0e565b820191906000526020600020905b815481529060010190602001808311611df157829003601f168201915b50505050509050919050565b600060149054906101000a900460ff161515611e3557600080fd5b803373ffffffffffffffffffffffffffffffffffffffff16600160008373ffffffffffffffffffffffffffffffffffffffff1673ffffffffffffffffffffffffffffffffffffffff16815260200190815260200160002060010160009054906101000a900473ffffffffffffffffffffffffffffffffffffffff1673ffffffffffffffffffffffffffffffffffffffff16141515611ed257600080fd5b6000600160008473ffffffffffffffffffffffffffffffffffffffff1673ffffffffffffffffffffffffffffffffffffffff16815260200190815260200160002060010160146101000a81548160ff0219169083151502179055505050565b600060149054906101000a900460ff161515611f4c57600080fd5b80600160008273ffffffffffffffffffffffffffffffffffffffff1673ffffffffffffffffffffffffffffffffffffffff16815260200190815260200160002060010160149054906101000a900460ff161515611fa857600080fd5b611fb28233612728565b1515611fbd57600080fd5b5050565b600060149054906101000a900460ff161515611fdc57600080fd5b813373ffffffffffffffffffffffffffffffffffffffff16600160008373ffffffffffffffffffffffffffffffffffffffff1673ffffffffffffffffffffffffffffffffffffffff16815260200190815260200160002060010160009054906101000a900473ffffffffffffffffffffffffffffffffffffffff1673ffffffffffffffffffffffffffffffffffffffff1614151561207957600080fd5b81600160008573ffffffffffffffffffffffffffffffffffffffff1673ffffffffffffffffffffffffffffffffffffffff16815260200190815260200160002060080190805190602001906120cf92919061392b565b50505050565b6000809054906101000a900473ffffffffffffffffffffffffffffffffffffffff1673ffffffffffffffffffffffffffffffffffffffff163373ffffffffffffffffffffffffffffffffffffffff1614151561213057600080fd5b6001600060146101000a81548160ff021916908315150217905550565b600060149054906101000a900460ff16151561216857600080fd5b803373ffffffffffffffffffffffffffffffffffffffff16600160008373ffffffffffffffffffffffffffffffffffffffff1673ffffffffffffffffffffffffffffffffffffffff16815260200190815260200160002060010160009054906101000a900473ffffffffffffffffffffffffffffffffffffffff1673ffffffffffffffffffffffffffffffffffffffff1614151561220557600080fd5b60018060008473ffffffffffffffffffffffffffffffffffffffff1673ffffffffffffffffffffffffffffffffffffffff16815260200190815260200160002060010160146101000a81548160ff0219169083151502179055505050565b6000809054906101000a900473ffffffffffffffffffffffffffffffffffffffff1681565b600060149054906101000a900460ff1615156122a357600080fd5b803373ffffffffffffffffffffffffffffffffffffffff16600160008373ffffffffffffffffffffffffffffffffffffffff1673ffffffffffffffffffffffffffffffffffffffff16815260200190815260200160002060010160009054906101000a900473ffffffffffffffffffffffffffffffffffffffff1673ffffffffffffffffffffffffffffffffffffffff1614151561234057600080fd5b60018060008473ffffffffffffffffffffffffffffffffffffffff1673ffffffffffffffffffffffffffffffffffffffff16815260200190815260200160002060010160156101000a81548160ff0219169083151502179055505050565b6000600354905090565b600060149054906101000a900460ff1615156123c357600080fd5b67016345785d8a0000341415156123d957600080fd5b610180604051908101604052808781526020013373ffffffffffffffffffffffffffffffffffffffff1681526020016001151581526020016000151581526020018581526020018681526020016000815260200184815260200183815260200182815260200160206040519081016040528060008152508152602001600060010260001916815250600160003373ffffffffffffffffffffffffffffffffffffffff1673ffffffffffffffffffffffffffffffffffffffff16815260200190815260200160002060008201518160000190805190602001906124bc9291906139ab565b5060208201518160010160006101000a81548173ffffffffffffffffffffffffffffffffffffffff021916908373ffffffffffffffffffffffffffffffffffffffff16021790555060408201518160010160146101000a81548160ff02191690831515021790555060608201518160010160156101000a81548160ff0219169083151502179055506080820151816002015560a0820151816003015560c0820151816004015560e082015181600501556101008201518160060190805190602001906125899291906139ab565b506101208201518160070190805190602001906125a79291906139ab565b506101408201518160080190805190602001906125c59291906139ab565b5061016082015181600901906000191690559050506003600081548092919060010191905055503360026000600354815260200190815260200160002060006101000a81548173ffffffffffffffffffffffffffffffffffffffff021916908373ffffffffffffffffffffffffffffffffffffffff1602179055507f131c6313ee434534c7af9cd09fea2c8f4d21548f9706a2e498ba9f364a682f598633878660405180806020018573ffffffffffffffffffffffffffffffffffffffff1673ffffffffffffffffffffffffffffffffffffffff168152602001848152602001838152602001828103825286818151815260200191508051906020019080838360005b838110156126e35780820151818401526020810190506126c8565b50505050905090810190601f1680156127105780820380516001836020036101000a031916815260200191505b509550505050505060405180910390a1505050505050565b600080600160008573ffffffffffffffffffffffffffffffffffffffff1673ffffffffffffffffffffffffffffffffffffffff1681526020019081526020016000209050600073ffffffffffffffffffffffffffffffffffffffff168160010160009054906101000a900473ffffffffffffffffffffffffffffffffffffffff1673ffffffffffffffffffffffffffffffffffffffff161415801561285e5750600073ffffffffffffffffffffffffffffffffffffffff1681600a0160008573ffffffffffffffffffffffffffffffffffffffff1673ffffffffffffffffffffffffffffffffffffffff16815260200190815260200160002060010160029054906101000a900473ffffffffffffffffffffffffffffffffffffffff1673ffffffffffffffffffffffffffffffffffffffff1614155b80156128b9575080600a0160008473ffffffffffffffffffffffffffffffffffffffff1673ffffffffffffffffffffffffffffffffffffffff16815260200190815260200160002060010160169054906101000a900460ff16155b91505092915050565b60008060149054906101000a900460ff1615156128de57600080fd5b823373ffffffffffffffffffffffffffffffffffffffff16600160008373ffffffffffffffffffffffffffffffffffffffff1673ffffffffffffffffffffffffffffffffffffffff16815260200190815260200160002060010160009054906101000a900473ffffffffffffffffffffffffffffffffffffffff1673ffffffffffffffffffffffffffffffffffffffff1614151561297b57600080fd5b600160008573ffffffffffffffffffffffffffffffffffffffff1673ffffffffffffffffffffffffffffffffffffffff1681526020019081526020016000209150600073ffffffffffffffffffffffffffffffffffffffff168373ffffffffffffffffffffffffffffffffffffffff16141515156129f857600080fd5b8273ffffffffffffffffffffffffffffffffffffffff166000809054906101000a900473ffffffffffffffffffffffffffffffffffffffff1673ffffffffffffffffffffffffffffffffffffffff167f6840904f5b31827f74e1497360da245f56e530c8c3de3163a2d31f11493273c6846000016040518080602001828103825283818154600181600116156101000203166002900481526020019150805460018160011615610100020316600290048015612af55780601f10612aca57610100808354040283529160200191612af5565b820191906000526020600020905b815481529060010190602001808311612ad857829003601f168201915b50509250505060405180910390a3828260010160006101000a81548173ffffffffffffffffffffffffffffffffffffffff021916908373ffffffffffffffffffffffffffffffffffffffff16021790555050505050565b600060149054906101000a900460ff161515612b6757600080fd5b803373ffffffffffffffffffffffffffffffffffffffff16600160008373ffffffffffffffffffffffffffffffffffffffff1673ffffffffffffffffffffffffffffffffffffffff16815260200190815260200160002060010160009054906101000a900473ffffffffffffffffffffffffffffffffffffffff1673ffffffffffffffffffffffffffffffffffffffff16141515612c0457600080fd5b6000600160008473ffffffffffffffffffffffffffffffffffffffff1673ffffffffffffffffffffffffffffffffffffffff16815260200190815260200160002060010160156101000a81548160ff0219169083151502179055505050565b60008060008060149054906101000a900460ff161515612c8257600080fd5b843373ffffffffffffffffffffffffffffffffffffffff16600160008373ffffffffffffffffffffffffffffffffffffffff1673ffffffffffffffffffffffffffffffffffffffff16815260200190815260200160002060010160009054906101000a900473ffffffffffffffffffffffffffffffffffffffff1673ffffffffffffffffffffffffffffffffffffffff16141515612d1f57600080fd5b600160008773ffffffffffffffffffffffffffffffffffffffff1673ffffffffffffffffffffffffffffffffffffffff168152602001908152602001600020935083600b01600086815260200190815260200160002060009054906101000a900473ffffffffffffffffffffffffffffffffffffffff16925083600a0160008473ffffffffffffffffffffffffffffffffffffffff1673ffffffffffffffffffffffffffffffffffffffff16815260200190815260200160002091508160010160169054906101000a900460ff16151515612df957600080fd5b8160010160019054906101000a900460ff16151515612e1757600080fd5b60018260010160166101000a81548160ff02191690831515021790555060018260010160016101000a81548160ff0219169083151502179055508360040160008154809291906001900391905055508160010160029054906101000a900473ffffffffffffffffffffffffffffffffffffffff1673ffffffffffffffffffffffffffffffffffffffff166108fc83600201549081150290604051600060405180830381858888f19350505050158015612ed4573d6000803e3d6000fd5b507f020250c059c13097f34c609c0cfa708a4451028ab1ab7eb252ea662eb9d62f5d84600001873385600001866002015460405180806020018673ffffffffffffffffffffffffffffffffffffffff1673ffffffffffffffffffffffffffffffffffffffff1681526020018573ffffffffffffffffffffffffffffffffffffffff1673ffffffffffffffffffffffffffffffffffffffff16815260200180602001848152602001838103835288818154600181600116156101000203166002900481526020019150805460018160011615610100020316600290048015612ffc5780601f10612fd157610100808354040283529160200191612ffc565b820191906000526020600020905b815481529060010190602001808311612fdf57829003601f168201915b505083810382528581815460018160011615610100020316600290048152602001915080546001816001161561010002031660029004801561307f5780601f106130545761010080835404028352916020019161307f565b820191906000526020600020905b81548152906001019060200180831161306257829003601f168201915b505097505050505050505060405180910390a1505050505050565b60008060008060149054906101000a900460ff1615156130b957600080fd5b853373ffffffffffffffffffffffffffffffffffffffff16600160008373ffffffffffffffffffffffffffffffffffffffff1673ffffffffffffffffffffffffffffffffffffffff16815260200190815260200160002060010160009054906101000a900473ffffffffffffffffffffffffffffffffffffffff1673ffffffffffffffffffffffffffffffffffffffff1614151561315657600080fd5b600160008873ffffffffffffffffffffffffffffffffffffffff1673ffffffffffffffffffffffffffffffffffffffff168152602001908152602001600020935083600b01600087815260200190815260200160002060009054906101000a900473ffffffffffffffffffffffffffffffffffffffff16925083600a0160008473ffffffffffffffffffffffffffffffffffffffff1673ffffffffffffffffffffffffffffffffffffffff1681526020019081526020016000209150848260010160006101000a81548160ff02191690831515021790555050505050505050565b6000809054906101000a900473ffffffffffffffffffffffffffffffffffffffff1673ffffffffffffffffffffffffffffffffffffffff163373ffffffffffffffffffffffffffffffffffffffff1614151561329257600080fd5b600073ffffffffffffffffffffffffffffffffffffffff168173ffffffffffffffffffffffffffffffffffffffff16141515156132ce57600080fd5b8073ffffffffffffffffffffffffffffffffffffffff166000809054906101000a900473ffffffffffffffffffffffffffffffffffffffff1673ffffffffffffffffffffffffffffffffffffffff167f8be0079c531659141344cd1fd0a4f28419497f9722a3daafe3b4186f6b6457e060405160405180910390a3806000806101000a81548173ffffffffffffffffffffffffffffffffffffffff021916908373ffffffffffffffffffffffffffffffffffffffff16021790555050565b60008060149054906101000a900460ff1615156133a857600080fd5b823373ffffffffffffffffffffffffffffffffffffffff16600160008373ffffffffffffffffffffffffffffffffffffffff1673ffffffffffffffffffffffffffffffffffffffff16815260200190815260200160002060010160009054906101000a900473ffffffffffffffffffffffffffffffffffffffff1673ffffffffffffffffffffffffffffffffffffffff1614151561344557600080fd5b600160008573ffffffffffffffffffffffffffffffffffffffff1673ffffffffffffffffffffffffffffffffffffffff16815260200190815260200160002091508282600901816000191690555050505050565b60008060149054906101000a900460ff1615156134b557600080fd5b82600160008273ffffffffffffffffffffffffffffffffffffffff1673ffffffffffffffffffffffffffffffffffffffff16815260200190815260200160002060010160149054906101000a900460ff16151561351157600080fd5b61351b8433612728565b15151561352757600080fd5b600160008573ffffffffffffffffffffffffffffffffffffffff1673ffffffffffffffffffffffffffffffffffffffff16815260200190815260200160002091508160030154826004015410151561357e57600080fd5b662386f26fc10000600183600201540202341015151561359d57600080fd5b816004016000815480929190600101919050555060c0604051908101604052808481526020016000151581526020016000151581526020013373ffffffffffffffffffffffffffffffffffffffff1681526020016000151581526020013481525082600a0160003373ffffffffffffffffffffffffffffffffffffffff1673ffffffffffffffffffffffffffffffffffffffff168152602001908152602001600020600082015181600001908051906020019061365b9291906139ab565b5060208201518160010160006101000a81548160ff02191690831515021790555060408201518160010160016101000a81548160ff02191690831515021790555060608201518160010160026101000a81548173ffffffffffffffffffffffffffffffffffffffff021916908373ffffffffffffffffffffffffffffffffffffffff16021790555060808201518160010160166101000a81548160ff02191690831515021790555060a082015181600201559050503382600b0160008460040154815260200190815260200160002060006101000a81548173ffffffffffffffffffffffffffffffffffffffff021916908373ffffffffffffffffffffffffffffffffffffffff1602179055507fdbd09efc0b84aa2172815c5094aa75fbdd43ae888f608bb0252cca7ae4cfefcb826000018360010160009054906101000a900473ffffffffffffffffffffffffffffffffffffffff1633863460405180806020018673ffffffffffffffffffffffffffffffffffffffff1673ffffffffffffffffffffffffffffffffffffffff1681526020018573ffffffffffffffffffffffffffffffffffffffff1673ffffffffffffffffffffffffffffffffffffffff168152602001806020018481526020018381038352888181546001816001161561010002031660029004815260200191508054600181600116156101000203166002900480156138ac5780601f10613881576101008083540402835291602001916138ac565b820191906000526020600020905b81548152906001019060200180831161388f57829003601f168201915b5050838103825285818151815260200191508051906020019080838360005b838110156138e65780820151818401526020810190506138cb565b50505050905090810190601f1680156139135780820380516001836020036101000a031916815260200191505b5097505050505050505060405180910390a150505050565b828054600181600116156101000203166002900490600052602060002090601f016020900481019282601f1061396c57805160ff191683800117855561399a565b8280016001018555821561399a579182015b8281111561399957825182559160200191906001019061397e565b5b5090506139a79190613a2b565b5090565b828054600181600116156101000203166002900490600052602060002090601f016020900481019282601f106139ec57805160ff1916838001178555613a1a565b82800160010185558215613a1a579182015b82811115613a195782518255916020019190600101906139fe565b5b509050613a279190613a2b565b5090565b613a4d91905b80821115613a49576000816000905550600101613a31565b5090565b905600a165627a7a723058200382e33fc731ae18fb6b50f18a69ff7fd3fc0462166335f3f753f9b56ca1ccbd0029",
  "source": "pragma solidity ^0.4.4;\n\nimport \"./Ownable.sol\";\n\ncontract Activitycontract is Ownable\n{\n\n    mapping(address => Activity) activities;        //owner of activity to map  Activity struct \n    mapping(uint => address) activitiestIndex;      //index of activity to map  address of activity owner \n    uint numberOfActivity;                          \n\n    struct Activity {\n        string   name;\n        address   owner;\n        bool  isActive;             \n        bool  isPayActive;\n        uint price;\n        uint limit;\n        uint registeredCount;\n        uint date;\n        string content;\n        string imageHash;\n        string    participationUrl ;//we should change this ,string is visible :)\n        bytes32   validateNumber ;//this is a hash  to participant verify themselves for payback money\n\n        mapping(address => Participant) participants; //address of user to map Participant struct\n        mapping(uint => address) participantIndex;    //index of user to map address of user\n\n    }\n\n\n\n    struct Participant {\n        string email;\n        bool validated; \n        bool payBack;   \n        address addr;\n        bool deleted;\n        uint256 value; //amount of deposid ,maybe this is unnecassry :)\n    }\n\n    event ParticipantRegisteredAt(string name,address _Owner,address usr, string email,uint value);\n    event ParticipantDeletedAt(string name,address _Owner, address usr, string email,uint value);\n    event ParticipantPayBackAt(string name,address _Owner, address usr, string email,uint value);\n\n    event ActivityCreated(string _name,address _owner,uint _limit,uint _date);\n    event OwnershipTransferred(string  _name,address indexed previousOwner, address indexed newOwner);\n\n    function Activitycontract(bool _isActive,bool _isPayActive) public {\n        owner = msg.sender;\n        isActive=_isActive;\n        isPayActive=_isPayActive;\n    }\n\n    modifier onlyActiveActivity(address _act) {\n        require(activities[_act].isActive);\n        _;\n    }\n    modifier onlyOwnerActivity(address _act) {\n        require(activities[_act].owner == msg.sender);\n        _;\n    }\n\n    function createActivity(string _name,uint _limit,uint _price,uint _date,string _content,string _hash)\n    onlyActive\n    payable\n    public\n    {\n\n        if (msg.value != 1* 10**17 ){ //assume 0.1 ether to prevent DDOS, 0.01 ether :)\n            revert();\n        }\n        // require(activities[msg.sender].owner == address(0)); //if has not  create an activity before\n        activities[msg.sender] = Activity(\n            {\n            name:_name,\n            owner:msg.sender,\n            isActive:true,\n            isPayActive:false,\n            price:_price,    //only  owner of activity  can change\n            limit:_limit,\n            date:_date,\n            content:_content,\n            imageHash:_hash,\n            registeredCount:0,\n            participationUrl:\"\",\n            validateNumber:0\n            });\n        numberOfActivity++;//start with index 1\n        activitiestIndex[numberOfActivity] = msg.sender;\n\n        ActivityCreated(_name,msg.sender,_limit,_date);\n\n\n    }\n\n    function registerToActivity(address _activity,string _email)\n    onlyActive\n    onlyActiveActivity(_activity)\n    payable\n    public {\n        require(!isRegistered(_activity,msg.sender));\n\n        Activity storage activity = activities[_activity];\n        require(activity.registeredCount < activity.limit);\n\n\n        require(msg.value >= activity.price * 1*10**16); //price control 1*ether value,now 0.1 ether\n\n        activity.registeredCount++;\n        activity.participants[msg.sender] = Participant(_email, false,false, msg.sender, false,msg.value);\n        activity.participantIndex[activity.registeredCount] = msg.sender;\n\n        ParticipantRegisteredAt(activity.name,activity.owner,msg.sender,_email,msg.value);\n    }\n\n    function isRegistered(address _activity,address _partipantaddr) public constant returns (bool) {\n        Activity storage activity = activities[_activity];//may be this is unnecassry\n\n        return  activity.owner!=address(0) &&\n        activity.participants[_partipantaddr].addr != address(0)  &&\n        !activity.participants[_partipantaddr].deleted;\n    }\n\n\n    function getParticipationUrl(address _activity) public\n    onlyActive\n    onlyActiveActivity(_activity)\n    constant returns (string) {\n        require(isRegistered(_activity,msg.sender));\n        require(activities[_activity].participants[msg.sender].validated);\n        return activities[_activity].participationUrl;\n    }\n    function getTotalActivity() public constant returns (uint) {\n        return numberOfActivity;\n    }\n\n    function getTotalParticipant(address _activity) public constant returns (uint) {\n        return activities[_activity].registeredCount;\n    }\n\n\n    function getLimit(address _activity) public constant returns (uint) {\n        return activities[_activity].limit;\n    }\n\n    function leaveActivity(address _activity)\n    onlyActive\n    onlyActiveActivity(_activity)\n    public view{\n        require(isRegistered(_activity,msg.sender));\n    }\n\n    function getInfoActivity(address _activity)\n    public view returns(string,address,bool,uint,uint,uint,uint,string,string){\n        Activity storage temp = activities[_activity];\n        return (temp.name,temp.owner,temp.isActive,temp.price,temp.registeredCount,temp.limit,temp.date,temp.content,temp.imageHash);\n        \n    }\n    //Admin methods\n    function getParticipiant(address _activity,uint idx) public\n    onlyActive\n    onlyOwnerActivity(_activity)\n    constant\n    returns (uint index, string email, address addr,uint256 value)\n    {\n        Activity storage activity = activities[_activity];\n        address userAddr = activity.participantIndex[idx];\n        Participant storage participant = activity.participants[userAddr];\n        return (idx, participant.email, participant.addr,participant.value);\n    }\n\n    function deleteParticipiant(address _activity,uint idx) public\n    onlyActive\n    onlyOwnerActivity(_activity)\n    {\n        Activity storage activity = activities[_activity];\n        address userAddr = activity.participantIndex[idx];\n        Participant storage participant = activity.participants[userAddr];\n\n\n        require(!participant.deleted); //is not deleted\n        require(!participant.payBack);  //is not payBack\n\n        participant.deleted = true;\n        participant.payBack=true;\n        activity.registeredCount--;\n\n        participant.addr.transfer(participant.value);//if is it fail ,throws on failure\n        ParticipantDeletedAt(activity.name,address(_activity),msg.sender,participant.email,participant.value);\n\n    }\n\n    function validateStudentStatus(address _activity,uint idx, bool isValidated)\n    onlyActive\n    onlyOwnerActivity(_activity)\n    public\n    {\n        Activity storage activity = activities[_activity];\n        address userAddr = activity.participantIndex[idx];\n        Participant storage participant = activity.participants[userAddr];\n        participant.validated = isValidated;\n    }\n\n\n    // if we will share invitation link like this,we must change this method because string is visibile on blockexplorer :)\n    function setParticipationLink(address _activity,string url) public\n    onlyActive\n    onlyOwnerActivity(_activity) {\n        activities[_activity].participationUrl = url;\n    }\n\n    function setPrice(address _activity,uint _price) public\n    onlyActive\n    onlyOwnerActivity(_activity) {\n        activities[_activity].price = _price;\n    }\n    function getPrice(address _activity) public view returns(uint) {\n        return activities[_activity].price;\n    }\n\n    function closeParticipation(address _activity) public\n    onlyActive\n    onlyOwnerActivity(_activity) {\n        activities[_activity].isActive = false;\n    }\n\n    function openParticipation(address _activity) public\n    onlyActive\n    onlyOwnerActivity(_activity) {\n        activities[_activity].isActive = true;\n    }\n\n    function closePayActive(address _activity) public  onlyActive\n    onlyOwnerActivity(_activity) {\n        activities[_activity].isPayActive = false;\n    }\n\n    function openPayActive(address _activity) public  onlyActive\n    onlyOwnerActivity(_activity) {\n        activities[_activity].isPayActive = true;\n    }\n\n\n\n    //only Owner set validateNumber=keccak256(key), during lesson we will share only key to participants\n    function validateMeReturnMoney(address _activity,string _key) public\n    onlyActive\n    onlyActiveActivity(_activity)\n    {\n        require(isRegistered(_activity,msg.sender));\n        Activity storage activity = activities[_activity];\n        require(activity.validateNumber==keccak256(_key));\n\n        Participant storage participant = activity.participants[msg.sender];\n\n        require(!participant.deleted); //is not deleted\n        require(!participant.payBack);  //is not payBack\n\n        participant.payBack=true;\n\n        participant.addr.transfer(participant.value * 6);//if is it fail ,throws on failure\n        //todo   multiple 5 times for only test, change later\n        ParticipantPayBackAt(activity.name,activity.owner,msg.sender,participant.email,participant.value);\n\n\n    }\n    function setValidateHash(address _activity,bytes32 _hash) public\n    onlyActive\n    onlyOwnerActivity(_activity){\n        Activity storage activity = activities[_activity];\n        activity.validateNumber=_hash;\n    }\n    function getValidateHash(address _activity)\n    onlyOwnerActivity(_activity)\n    public constant returns(bytes32)\n    {\n        return activities[_activity].validateNumber;\n    }\n    function transferOwnershipActivity(address _activity,address newOwner)\n    onlyActive\n    onlyOwnerActivity(_activity)\n    public{\n        Activity storage activity = activities[_activity];\n        require(newOwner != address(0));\n        OwnershipTransferred(activity.name,owner,newOwner);\n        activity.owner = newOwner;\n    }\n\n    function getName(address _activity) public constant returns(string){\n        return activities[_activity].name;\n    }\n    function getActive() public constant returns(bool){\n        return isActive;\n    }\n    function setActive() onlyOwner public {\n        isActive=true;\n    }\n}",
  "sourcePath": "/Users/fatih/Desktop/ether-registration/contracts/Activitycontract.sol",
  "compiler": {
    "name": "solc",
    "version": "0.4.23+commit.124ca40d.Emscripten.clang"
  },
  "schemaVersion": "2.0.0",
  "updatedAt": "2018-06-30T14:46:13.642Z"
}