{
  "contractName": "Activitycontract",
  "abi": [
    {
      "constant": false,
      "inputs": [],
      "name": "kill",
      "outputs": [],
      "payable": false,
      "stateMutability": "nonpayable",
      "type": "function"
    },
    {
      "constant": true,
      "inputs": [],
      "name": "owner",
      "outputs": [
        {
          "name": "",
          "type": "address"
        }
      ],
      "payable": false,
      "stateMutability": "view",
      "type": "function"
    },
    {
      "constant": false,
      "inputs": [
        {
          "name": "newOwner",
          "type": "address"
        }
      ],
      "name": "transferOwnership",
      "outputs": [],
      "payable": false,
      "stateMutability": "nonpayable",
      "type": "function"
    },
    {
      "inputs": [
        {
          "name": "_isActive",
          "type": "bool"
        },
        {
          "name": "_isPayActive",
          "type": "bool"
        }
      ],
      "payable": false,
      "stateMutability": "nonpayable",
      "type": "constructor"
    },
    {
      "anonymous": false,
      "inputs": [
        {
          "indexed": false,
          "name": "name",
          "type": "string"
        },
        {
          "indexed": false,
          "name": "_Owner",
          "type": "address"
        },
        {
          "indexed": false,
          "name": "usr",
          "type": "address"
        },
        {
          "indexed": false,
          "name": "email",
          "type": "string"
        },
        {
          "indexed": false,
          "name": "value",
          "type": "uint256"
        }
      ],
      "name": "ParticipantRegisteredAt",
      "type": "event"
    },
    {
      "anonymous": false,
      "inputs": [
        {
          "indexed": false,
          "name": "name",
          "type": "string"
        },
        {
          "indexed": false,
          "name": "_Owner",
          "type": "address"
        },
        {
          "indexed": false,
          "name": "usr",
          "type": "address"
        },
        {
          "indexed": false,
          "name": "email",
          "type": "string"
        },
        {
          "indexed": false,
          "name": "value",
          "type": "uint256"
        }
      ],
      "name": "ParticipantDeletedAt",
      "type": "event"
    },
    {
      "anonymous": false,
      "inputs": [
        {
          "indexed": false,
          "name": "name",
          "type": "string"
        },
        {
          "indexed": false,
          "name": "_Owner",
          "type": "address"
        },
        {
          "indexed": false,
          "name": "usr",
          "type": "address"
        },
        {
          "indexed": false,
          "name": "email",
          "type": "string"
        },
        {
          "indexed": false,
          "name": "value",
          "type": "uint256"
        }
      ],
      "name": "ParticipantPayBackAt",
      "type": "event"
    },
    {
      "anonymous": false,
      "inputs": [
        {
          "indexed": false,
          "name": "_name",
          "type": "string"
        },
        {
          "indexed": false,
          "name": "_owner",
          "type": "address"
        },
        {
          "indexed": false,
          "name": "_limit",
          "type": "uint256"
        },
        {
          "indexed": false,
          "name": "_date",
          "type": "uint256"
        }
      ],
      "name": "ActivityCreated",
      "type": "event"
    },
    {
      "anonymous": false,
      "inputs": [
        {
          "indexed": false,
          "name": "_name",
          "type": "string"
        },
        {
          "indexed": true,
          "name": "previousOwner",
          "type": "address"
        },
        {
          "indexed": true,
          "name": "newOwner",
          "type": "address"
        }
      ],
      "name": "OwnershipTransferred",
      "type": "event"
    },
    {
      "anonymous": false,
      "inputs": [
        {
          "indexed": true,
          "name": "previousOwner",
          "type": "address"
        },
        {
          "indexed": true,
          "name": "newOwner",
          "type": "address"
        }
      ],
      "name": "OwnershipTransferred",
      "type": "event"
    },
    {
      "constant": false,
      "inputs": [
        {
          "name": "_name",
          "type": "string"
        },
        {
          "name": "_limit",
          "type": "uint256"
        },
        {
          "name": "_price",
          "type": "uint256"
        },
        {
          "name": "_date",
          "type": "uint256"
        }
      ],
      "name": "createActivity",
      "outputs": [],
      "payable": true,
      "stateMutability": "payable",
      "type": "function"
    },
    {
      "constant": false,
      "inputs": [
        {
          "name": "_activity",
          "type": "address"
        },
        {
          "name": "_email",
          "type": "string"
        }
      ],
      "name": "registerToActivity",
      "outputs": [],
      "payable": true,
      "stateMutability": "payable",
      "type": "function"
    },
    {
      "constant": true,
      "inputs": [
        {
          "name": "_activity",
          "type": "address"
        },
        {
          "name": "_partipantaddr",
          "type": "address"
        }
      ],
      "name": "isRegistered",
      "outputs": [
        {
          "name": "",
          "type": "bool"
        }
      ],
      "payable": false,
      "stateMutability": "view",
      "type": "function"
    },
    {
      "constant": true,
      "inputs": [
        {
          "name": "_activity",
          "type": "address"
        }
      ],
      "name": "getParticipationUrl",
      "outputs": [
        {
          "name": "",
          "type": "string"
        }
      ],
      "payable": false,
      "stateMutability": "view",
      "type": "function"
    },
    {
      "constant": true,
      "inputs": [],
      "name": "getTotalActivity",
      "outputs": [
        {
          "name": "",
          "type": "uint256"
        }
      ],
      "payable": false,
      "stateMutability": "view",
      "type": "function"
    },
    {
      "constant": true,
      "inputs": [
        {
          "name": "_activity",
          "type": "address"
        }
      ],
      "name": "getTotalParticipant",
      "outputs": [
        {
          "name": "",
          "type": "uint256"
        }
      ],
      "payable": false,
      "stateMutability": "view",
      "type": "function"
    },
    {
      "constant": true,
      "inputs": [
        {
          "name": "_activity",
          "type": "address"
        }
      ],
      "name": "getLimit",
      "outputs": [
        {
          "name": "",
          "type": "uint256"
        }
      ],
      "payable": false,
      "stateMutability": "view",
      "type": "function"
    },
    {
      "constant": true,
      "inputs": [
        {
          "name": "_activity",
          "type": "address"
        }
      ],
      "name": "leaveActivity",
      "outputs": [],
      "payable": false,
      "stateMutability": "view",
      "type": "function"
    },
    {
      "constant": true,
      "inputs": [
        {
          "name": "_activity",
          "type": "address"
        }
      ],
      "name": "getInfoActivity",
      "outputs": [
        {
          "name": "",
          "type": "string"
        },
        {
          "name": "",
          "type": "address"
        },
        {
          "name": "",
          "type": "bool"
        },
        {
          "name": "",
          "type": "uint256"
        },
        {
          "name": "",
          "type": "uint256"
        },
        {
          "name": "",
          "type": "uint256"
        },
        {
          "name": "",
          "type": "uint256"
        }
      ],
      "payable": false,
      "stateMutability": "view",
      "type": "function"
    },
    {
      "constant": true,
      "inputs": [
        {
          "name": "_activity",
          "type": "address"
        },
        {
          "name": "idx",
          "type": "uint256"
        }
      ],
      "name": "getParticipiant",
      "outputs": [
        {
          "name": "index",
          "type": "uint256"
        },
        {
          "name": "email",
          "type": "string"
        },
        {
          "name": "addr",
          "type": "address"
        },
        {
          "name": "value",
          "type": "uint256"
        }
      ],
      "payable": false,
      "stateMutability": "view",
      "type": "function"
    },
    {
      "constant": false,
      "inputs": [
        {
          "name": "_activity",
          "type": "address"
        },
        {
          "name": "idx",
          "type": "uint256"
        }
      ],
      "name": "deleteParticipiant",
      "outputs": [],
      "payable": false,
      "stateMutability": "nonpayable",
      "type": "function"
    },
    {
      "constant": false,
      "inputs": [
        {
          "name": "_activity",
          "type": "address"
        },
        {
          "name": "idx",
          "type": "uint256"
        },
        {
          "name": "isValidated",
          "type": "bool"
        }
      ],
      "name": "validateStudentStatus",
      "outputs": [],
      "payable": false,
      "stateMutability": "nonpayable",
      "type": "function"
    },
    {
      "constant": false,
      "inputs": [
        {
          "name": "_activity",
          "type": "address"
        },
        {
          "name": "url",
          "type": "string"
        }
      ],
      "name": "setParticipationLink",
      "outputs": [],
      "payable": false,
      "stateMutability": "nonpayable",
      "type": "function"
    },
    {
      "constant": false,
      "inputs": [
        {
          "name": "_activity",
          "type": "address"
        },
        {
          "name": "_price",
          "type": "uint256"
        }
      ],
      "name": "setPrice",
      "outputs": [],
      "payable": false,
      "stateMutability": "nonpayable",
      "type": "function"
    },
    {
      "constant": true,
      "inputs": [
        {
          "name": "_activity",
          "type": "address"
        }
      ],
      "name": "getPrice",
      "outputs": [
        {
          "name": "",
          "type": "uint256"
        }
      ],
      "payable": false,
      "stateMutability": "view",
      "type": "function"
    },
    {
      "constant": false,
      "inputs": [
        {
          "name": "_activity",
          "type": "address"
        }
      ],
      "name": "closeParticipation",
      "outputs": [],
      "payable": false,
      "stateMutability": "nonpayable",
      "type": "function"
    },
    {
      "constant": false,
      "inputs": [
        {
          "name": "_activity",
          "type": "address"
        }
      ],
      "name": "openParticipation",
      "outputs": [],
      "payable": false,
      "stateMutability": "nonpayable",
      "type": "function"
    },
    {
      "constant": false,
      "inputs": [
        {
          "name": "_activity",
          "type": "address"
        }
      ],
      "name": "closePayActive",
      "outputs": [],
      "payable": false,
      "stateMutability": "nonpayable",
      "type": "function"
    },
    {
      "constant": false,
      "inputs": [
        {
          "name": "_activity",
          "type": "address"
        }
      ],
      "name": "openPayActive",
      "outputs": [],
      "payable": false,
      "stateMutability": "nonpayable",
      "type": "function"
    },
    {
      "constant": false,
      "inputs": [
        {
          "name": "_activity",
          "type": "address"
        },
        {
          "name": "_key",
          "type": "string"
        }
      ],
      "name": "validateMeReturnMoney",
      "outputs": [],
      "payable": false,
      "stateMutability": "nonpayable",
      "type": "function"
    },
    {
      "constant": false,
      "inputs": [
        {
          "name": "_activity",
          "type": "address"
        },
        {
          "name": "_hash",
          "type": "bytes32"
        }
      ],
      "name": "setValidateHash",
      "outputs": [],
      "payable": false,
      "stateMutability": "nonpayable",
      "type": "function"
    },
    {
      "constant": true,
      "inputs": [
        {
          "name": "_activity",
          "type": "address"
        }
      ],
      "name": "getValidateHash",
      "outputs": [
        {
          "name": "",
          "type": "bytes32"
        }
      ],
      "payable": false,
      "stateMutability": "view",
      "type": "function"
    },
    {
      "constant": false,
      "inputs": [
        {
          "name": "_activity",
          "type": "address"
        },
        {
          "name": "newOwner",
          "type": "address"
        }
      ],
      "name": "transferOwnershipActivity",
      "outputs": [],
      "payable": false,
      "stateMutability": "nonpayable",
      "type": "function"
    },
    {
      "constant": true,
      "inputs": [
        {
          "name": "_activity",
          "type": "address"
        }
      ],
      "name": "getName",
      "outputs": [
        {
          "name": "",
          "type": "string"
        }
      ],
      "payable": false,
      "stateMutability": "view",
      "type": "function"
    },
    {
      "constant": true,
      "inputs": [],
      "name": "getActive",
      "outputs": [
        {
          "name": "",
          "type": "bool"
        }
      ],
      "payable": false,
      "stateMutability": "view",
      "type": "function"
    },
    {
      "constant": false,
      "inputs": [],
      "name": "setActive",
      "outputs": [],
      "payable": false,
      "stateMutability": "nonpayable",
      "type": "function"
    }
  ],
  "bytecode": "0x608060405234801561001057600080fd5b506040516040806138878339810180604052810190808051906020019092919080519060200190929190505050336000806101000a81548173ffffffffffffffffffffffffffffffffffffffff021916908373ffffffffffffffffffffffffffffffffffffffff160217905550336000806101000a81548173ffffffffffffffffffffffffffffffffffffffff021916908373ffffffffffffffffffffffffffffffffffffffff16021790555081600060146101000a81548160ff02191690831515021790555080600060156101000a81548160ff0219169083151502179055505050613785806101026000396000f300608060405260043610610173576000357c0100000000000000000000000000000000000000000000000000000000900463ffffffff1680629ebb1014610178578062e4768b146101a757806316926292146101f45780631ce28e721461030a5780633bf41e0714610361578063414511031461046857806341976e09146104f157806341c0e1b514610548578063424ad0c31461055f57806357a168741461061b5780635e0e348f1461067a5780635fd4b08a146106d1578063605b7a2c1461078d57806370040a7e146107d057806370acd3a314610813578063760a8c2a1461089c578063873f731c146108b35780638da5cb5b146108f65780639b867f691461094d578063af45c90614610990578063d3da927f146109bb578063d995a86014610a36578063e275a7d814610a99578063e94605c114610adc578063ee43737e14610b29578063f2fde38b14610b82578063f6ef5b5a14610bc5578063f77c4f5214610c16578063fde86fe714610c92575b600080fd5b34801561018457600080fd5b5061018d610d0c565b604051808215151515815260200191505060405180910390f35b3480156101b357600080fd5b506101f2600480360381019080803573ffffffffffffffffffffffffffffffffffffffff16906020019092919080359060200190929190505050610d22565b005b34801561020057600080fd5b50610235600480360381019080803573ffffffffffffffffffffffffffffffffffffffff169060200190929190505050610e26565b60405180806020018873ffffffffffffffffffffffffffffffffffffffff1673ffffffffffffffffffffffffffffffffffffffff16815260200187151515158152602001868152602001858152602001848152602001838152602001828103825289818151815260200191508051906020019080838360005b838110156102c95780820151818401526020810190506102ae565b50505050905090810190601f1680156102f65780820380516001836020036101000a031916815260200191505b509850505050505050505060405180910390f35b34801561031657600080fd5b5061034b600480360381019080803573ffffffffffffffffffffffffffffffffffffffff169060200190929190505050610f79565b6040518082815260200191505060405180910390f35b34801561036d57600080fd5b506103ac600480360381019080803573ffffffffffffffffffffffffffffffffffffffff16906020019092919080359060200190929190505050610fc5565b60405180858152602001806020018473ffffffffffffffffffffffffffffffffffffffff1673ffffffffffffffffffffffffffffffffffffffff168152602001838152602001828103825285818151815260200191508051906020019080838360005b8381101561042a57808201518184015260208101905061040f565b50505050905090810190601f1680156104575780820380516001836020036101000a031916815260200191505b509550505050505060405180910390f35b34801561047457600080fd5b506104ef600480360381019080803573ffffffffffffffffffffffffffffffffffffffff169060200190929190803590602001908201803590602001908080601f0160208091040260200160405190810160405280939291908181526020018383808284378201915050505050509192919290505050611224565b005b3480156104fd57600080fd5b50610532600480360381019080803573ffffffffffffffffffffffffffffffffffffffff169060200190929190505050611666565b6040518082815260200191505060405180910390f35b34801561055457600080fd5b5061055d6116b2565b005b34801561056b57600080fd5b506105a0600480360381019080803573ffffffffffffffffffffffffffffffffffffffff169060200190929190505050611747565b6040518080602001828103825283818151815260200191508051906020019080838360005b838110156105e05780820151818401526020810190506105c5565b50505050905090810190601f16801561060d5780820380516001836020036101000a031916815260200191505b509250505060405180910390f35b34801561062757600080fd5b5061065c600480360381019080803573ffffffffffffffffffffffffffffffffffffffff169060200190929190505050611953565b60405180826000191660001916815260200191505060405180910390f35b34801561068657600080fd5b506106bb600480360381019080803573ffffffffffffffffffffffffffffffffffffffff169060200190929190505050611a3d565b6040518082815260200191505060405180910390f35b3480156106dd57600080fd5b50610712600480360381019080803573ffffffffffffffffffffffffffffffffffffffff169060200190929190505050611a89565b6040518080602001828103825283818151815260200191508051906020019080838360005b83811015610752578082015181840152602081019050610737565b50505050905090810190601f16801561077f5780820380516001836020036101000a031916815260200191505b509250505060405180910390f35b34801561079957600080fd5b506107ce600480360381019080803573ffffffffffffffffffffffffffffffffffffffff169060200190929190505050611b6d565b005b3480156107dc57600080fd5b50610811600480360381019080803573ffffffffffffffffffffffffffffffffffffffff169060200190929190505050611c84565b005b34801561081f57600080fd5b5061089a600480360381019080803573ffffffffffffffffffffffffffffffffffffffff169060200190929190803590602001908201803590602001908080601f0160208091040260200160405190810160405280939291908181526020018383808284378201915050505050509192919290505050611d14565b005b3480156108a857600080fd5b506108b1611e28565b005b3480156108bf57600080fd5b506108f4600480360381019080803573ffffffffffffffffffffffffffffffffffffffff169060200190929190505050611ea0565b005b34801561090257600080fd5b5061090b611fb6565b604051808273ffffffffffffffffffffffffffffffffffffffff1673ffffffffffffffffffffffffffffffffffffffff16815260200191505060405180910390f35b34801561095957600080fd5b5061098e600480360381019080803573ffffffffffffffffffffffffffffffffffffffff169060200190929190505050611fdb565b005b34801561099c57600080fd5b506109a56120f1565b6040518082815260200191505060405180910390f35b3480156109c757600080fd5b50610a1c600480360381019080803573ffffffffffffffffffffffffffffffffffffffff169060200190929190803573ffffffffffffffffffffffffffffffffffffffff1690602001909291905050506120fb565b604051808215151515815260200191505060405180910390f35b348015610a4257600080fd5b50610a97600480360381019080803573ffffffffffffffffffffffffffffffffffffffff169060200190929190803573ffffffffffffffffffffffffffffffffffffffff169060200190929190505050612295565b005b348015610aa557600080fd5b50610ada600480360381019080803573ffffffffffffffffffffffffffffffffffffffff16906020019092919050505061251f565b005b348015610ae857600080fd5b50610b27600480360381019080803573ffffffffffffffffffffffffffffffffffffffff16906020019092919080359060200190929190505050612636565b005b348015610b3557600080fd5b50610b80600480360381019080803573ffffffffffffffffffffffffffffffffffffffff16906020019092919080359060200190929190803515159060200190929190505050612a6d565b005b348015610b8e57600080fd5b50610bc3600480360381019080803573ffffffffffffffffffffffffffffffffffffffff169060200190929190505050612c0a565b005b348015610bd157600080fd5b50610c14600480360381019080803573ffffffffffffffffffffffffffffffffffffffff1690602001909291908035600019169060200190929190505050612d5f565b005b610c90600480360381019080803573ffffffffffffffffffffffffffffffffffffffff169060200190929190803590602001908201803590602001908080601f0160208091040260200160405190810160405280939291908181526020018383808284378201915050505050509192919290505050612e6c565b005b610d0a600480360381019080803590602001908201803590602001908080601f01602080910402602001604051908101604052809392919081815260200183838082843782019150505050505091929192908035906020019092919080359060200190929190803590602001909291905050506132fe565b005b60008060149054906101000a900460ff16905090565b600060149054906101000a900460ff161515610d3d57600080fd5b813373ffffffffffffffffffffffffffffffffffffffff16600160008373ffffffffffffffffffffffffffffffffffffffff1673ffffffffffffffffffffffffffffffffffffffff16815260200190815260200160002060010160009054906101000a900473ffffffffffffffffffffffffffffffffffffffff1673ffffffffffffffffffffffffffffffffffffffff16141515610dda57600080fd5b81600160008573ffffffffffffffffffffffffffffffffffffffff1673ffffffffffffffffffffffffffffffffffffffff16815260200190815260200160002060020181905550505050565b60606000806000806000806000600160008a73ffffffffffffffffffffffffffffffffffffffff1673ffffffffffffffffffffffffffffffffffffffff1681526020019081526020016000209050806000018160010160009054906101000a900473ffffffffffffffffffffffffffffffffffffffff168260010160149054906101000a900460ff168360020154846004015485600301548660050154868054600181600116156101000203166002900480601f016020809104026020016040519081016040528092919081815260200182805460018160011615610100020316600290048015610f585780601f10610f2d57610100808354040283529160200191610f58565b820191906000526020600020905b815481529060010190602001808311610f3b57829003601f168201915b50505050509650975097509750975097509750975050919395979092949650565b6000600160008373ffffffffffffffffffffffffffffffffffffffff1673ffffffffffffffffffffffffffffffffffffffff168152602001908152602001600020600301549050919050565b6000606060008060008060008060149054906101000a900460ff161515610feb57600080fd5b883373ffffffffffffffffffffffffffffffffffffffff16600160008373ffffffffffffffffffffffffffffffffffffffff1673ffffffffffffffffffffffffffffffffffffffff16815260200190815260200160002060010160009054906101000a900473ffffffffffffffffffffffffffffffffffffffff1673ffffffffffffffffffffffffffffffffffffffff1614151561108857600080fd5b600160008b73ffffffffffffffffffffffffffffffffffffffff1673ffffffffffffffffffffffffffffffffffffffff16815260200190815260200160002093508360090160008a815260200190815260200160002060009054906101000a900473ffffffffffffffffffffffffffffffffffffffff1692508360080160008473ffffffffffffffffffffffffffffffffffffffff1673ffffffffffffffffffffffffffffffffffffffff168152602001908152602001600020915088826000018360010160029054906101000a900473ffffffffffffffffffffffffffffffffffffffff168460020154828054600181600116156101000203166002900480601f0160208091040260200160405190810160405280929190818152602001828054600181600116156101000203166002900480156112085780601f106111dd57610100808354040283529160200191611208565b820191906000526020600020905b8154815290600101906020018083116111eb57829003601f168201915b5050505050925097509750975097505050505092959194509250565b600080600060149054906101000a900460ff16151561124257600080fd5b83600160008273ffffffffffffffffffffffffffffffffffffffff1673ffffffffffffffffffffffffffffffffffffffff16815260200190815260200160002060010160149054906101000a900460ff16151561129e57600080fd5b6112a885336120fb565b15156112b357600080fd5b600160008673ffffffffffffffffffffffffffffffffffffffff1673ffffffffffffffffffffffffffffffffffffffff1681526020019081526020016000209250836040518082805190602001908083835b60208310151561132a5780518252602082019150602081019050602083039250611305565b6001836020036101000a03801982511681845116808217855250505050505090500191505060405180910390206000191683600701546000191614151561137057600080fd5b8260080160003373ffffffffffffffffffffffffffffffffffffffff1673ffffffffffffffffffffffffffffffffffffffff16815260200190815260200160002091508160010160169054906101000a900460ff161515156113d157600080fd5b8160010160019054906101000a900460ff161515156113ef57600080fd5b60018260010160016101000a81548160ff0219169083151502179055508160010160029054906101000a900473ffffffffffffffffffffffffffffffffffffffff1673ffffffffffffffffffffffffffffffffffffffff166108fc60068460020154029081150290604051600060405180830381858888f1935050505015801561147d573d6000803e3d6000fd5b507f2d273dc18b4f1672ab5d33e98c00245d4f38c3a1c510cd1426d3f45bfbc443b0836000018460010160009054906101000a900473ffffffffffffffffffffffffffffffffffffffff163385600001866002015460405180806020018673ffffffffffffffffffffffffffffffffffffffff1673ffffffffffffffffffffffffffffffffffffffff1681526020018573ffffffffffffffffffffffffffffffffffffffff1673ffffffffffffffffffffffffffffffffffffffff168152602001806020018481526020018381038352888181546001816001161561010002031660029004815260200191508054600181600116156101000203166002900480156115c95780601f1061159e576101008083540402835291602001916115c9565b820191906000526020600020905b8154815290600101906020018083116115ac57829003601f168201915b505083810382528581815460018160011615610100020316600290048152602001915080546001816001161561010002031660029004801561164c5780601f106116215761010080835404028352916020019161164c565b820191906000526020600020905b81548152906001019060200180831161162f57829003601f168201915b505097505050505050505060405180910390a15050505050565b6000600160008373ffffffffffffffffffffffffffffffffffffffff1673ffffffffffffffffffffffffffffffffffffffff168152602001908152602001600020600201549050919050565b6000809054906101000a900473ffffffffffffffffffffffffffffffffffffffff1673ffffffffffffffffffffffffffffffffffffffff163373ffffffffffffffffffffffffffffffffffffffff1614151561170d57600080fd5b6000809054906101000a900473ffffffffffffffffffffffffffffffffffffffff1673ffffffffffffffffffffffffffffffffffffffff16ff5b6060600060149054906101000a900460ff16151561176457600080fd5b81600160008273ffffffffffffffffffffffffffffffffffffffff1673ffffffffffffffffffffffffffffffffffffffff16815260200190815260200160002060010160149054906101000a900460ff1615156117c057600080fd5b6117ca83336120fb565b15156117d557600080fd5b600160008473ffffffffffffffffffffffffffffffffffffffff1673ffffffffffffffffffffffffffffffffffffffff16815260200190815260200160002060080160003373ffffffffffffffffffffffffffffffffffffffff1673ffffffffffffffffffffffffffffffffffffffff16815260200190815260200160002060010160009054906101000a900460ff16151561187057600080fd5b600160008473ffffffffffffffffffffffffffffffffffffffff1673ffffffffffffffffffffffffffffffffffffffff1681526020019081526020016000206006018054600181600116156101000203166002900480601f0160208091040260200160405190810160405280929190818152602001828054600181600116156101000203166002900480156119465780601f1061191b57610100808354040283529160200191611946565b820191906000526020600020905b81548152906001019060200180831161192957829003601f168201915b5050505050915050919050565b6000813373ffffffffffffffffffffffffffffffffffffffff16600160008373ffffffffffffffffffffffffffffffffffffffff1673ffffffffffffffffffffffffffffffffffffffff16815260200190815260200160002060010160009054906101000a900473ffffffffffffffffffffffffffffffffffffffff1673ffffffffffffffffffffffffffffffffffffffff161415156119f257600080fd5b600160008473ffffffffffffffffffffffffffffffffffffffff1673ffffffffffffffffffffffffffffffffffffffff16815260200190815260200160002060070154915050919050565b6000600160008373ffffffffffffffffffffffffffffffffffffffff1673ffffffffffffffffffffffffffffffffffffffff168152602001908152602001600020600401549050919050565b6060600160008373ffffffffffffffffffffffffffffffffffffffff1673ffffffffffffffffffffffffffffffffffffffff1681526020019081526020016000206000018054600181600116156101000203166002900480601f016020809104026020016040519081016040528092919081815260200182805460018160011615610100020316600290048015611b615780601f10611b3657610100808354040283529160200191611b61565b820191906000526020600020905b815481529060010190602001808311611b4457829003601f168201915b50505050509050919050565b600060149054906101000a900460ff161515611b8857600080fd5b803373ffffffffffffffffffffffffffffffffffffffff16600160008373ffffffffffffffffffffffffffffffffffffffff1673ffffffffffffffffffffffffffffffffffffffff16815260200190815260200160002060010160009054906101000a900473ffffffffffffffffffffffffffffffffffffffff1673ffffffffffffffffffffffffffffffffffffffff16141515611c2557600080fd5b6000600160008473ffffffffffffffffffffffffffffffffffffffff1673ffffffffffffffffffffffffffffffffffffffff16815260200190815260200160002060010160146101000a81548160ff0219169083151502179055505050565b600060149054906101000a900460ff161515611c9f57600080fd5b80600160008273ffffffffffffffffffffffffffffffffffffffff1673ffffffffffffffffffffffffffffffffffffffff16815260200190815260200160002060010160149054906101000a900460ff161515611cfb57600080fd5b611d0582336120fb565b1515611d1057600080fd5b5050565b600060149054906101000a900460ff161515611d2f57600080fd5b813373ffffffffffffffffffffffffffffffffffffffff16600160008373ffffffffffffffffffffffffffffffffffffffff1673ffffffffffffffffffffffffffffffffffffffff16815260200190815260200160002060010160009054906101000a900473ffffffffffffffffffffffffffffffffffffffff1673ffffffffffffffffffffffffffffffffffffffff16141515611dcc57600080fd5b81600160008573ffffffffffffffffffffffffffffffffffffffff1673ffffffffffffffffffffffffffffffffffffffff1681526020019081526020016000206006019080519060200190611e22929190613634565b50505050565b6000809054906101000a900473ffffffffffffffffffffffffffffffffffffffff1673ffffffffffffffffffffffffffffffffffffffff163373ffffffffffffffffffffffffffffffffffffffff16141515611e8357600080fd5b6001600060146101000a81548160ff021916908315150217905550565b600060149054906101000a900460ff161515611ebb57600080fd5b803373ffffffffffffffffffffffffffffffffffffffff16600160008373ffffffffffffffffffffffffffffffffffffffff1673ffffffffffffffffffffffffffffffffffffffff16815260200190815260200160002060010160009054906101000a900473ffffffffffffffffffffffffffffffffffffffff1673ffffffffffffffffffffffffffffffffffffffff16141515611f5857600080fd5b60018060008473ffffffffffffffffffffffffffffffffffffffff1673ffffffffffffffffffffffffffffffffffffffff16815260200190815260200160002060010160146101000a81548160ff0219169083151502179055505050565b6000809054906101000a900473ffffffffffffffffffffffffffffffffffffffff1681565b600060149054906101000a900460ff161515611ff657600080fd5b803373ffffffffffffffffffffffffffffffffffffffff16600160008373ffffffffffffffffffffffffffffffffffffffff1673ffffffffffffffffffffffffffffffffffffffff16815260200190815260200160002060010160009054906101000a900473ffffffffffffffffffffffffffffffffffffffff1673ffffffffffffffffffffffffffffffffffffffff1614151561209357600080fd5b60018060008473ffffffffffffffffffffffffffffffffffffffff1673ffffffffffffffffffffffffffffffffffffffff16815260200190815260200160002060010160156101000a81548160ff0219169083151502179055505050565b6000600354905090565b600080600160008573ffffffffffffffffffffffffffffffffffffffff1673ffffffffffffffffffffffffffffffffffffffff1681526020019081526020016000209050600073ffffffffffffffffffffffffffffffffffffffff168160010160009054906101000a900473ffffffffffffffffffffffffffffffffffffffff1673ffffffffffffffffffffffffffffffffffffffff16141580156122315750600073ffffffffffffffffffffffffffffffffffffffff168160080160008573ffffffffffffffffffffffffffffffffffffffff1673ffffffffffffffffffffffffffffffffffffffff16815260200190815260200160002060010160029054906101000a900473ffffffffffffffffffffffffffffffffffffffff1673ffffffffffffffffffffffffffffffffffffffff1614155b801561228c57508060080160008473ffffffffffffffffffffffffffffffffffffffff1673ffffffffffffffffffffffffffffffffffffffff16815260200190815260200160002060010160169054906101000a900460ff16155b91505092915050565b60008060149054906101000a900460ff1615156122b157600080fd5b823373ffffffffffffffffffffffffffffffffffffffff16600160008373ffffffffffffffffffffffffffffffffffffffff1673ffffffffffffffffffffffffffffffffffffffff16815260200190815260200160002060010160009054906101000a900473ffffffffffffffffffffffffffffffffffffffff1673ffffffffffffffffffffffffffffffffffffffff1614151561234e57600080fd5b600160008573ffffffffffffffffffffffffffffffffffffffff1673ffffffffffffffffffffffffffffffffffffffff1681526020019081526020016000209150600073ffffffffffffffffffffffffffffffffffffffff168373ffffffffffffffffffffffffffffffffffffffff16141515156123cb57600080fd5b8273ffffffffffffffffffffffffffffffffffffffff166000809054906101000a900473ffffffffffffffffffffffffffffffffffffffff1673ffffffffffffffffffffffffffffffffffffffff167f6840904f5b31827f74e1497360da245f56e530c8c3de3163a2d31f11493273c68460000160405180806020018281038252838181546001816001161561010002031660029004815260200191508054600181600116156101000203166002900480156124c85780601f1061249d576101008083540402835291602001916124c8565b820191906000526020600020905b8154815290600101906020018083116124ab57829003601f168201915b50509250505060405180910390a3828260010160006101000a81548173ffffffffffffffffffffffffffffffffffffffff021916908373ffffffffffffffffffffffffffffffffffffffff16021790555050505050565b600060149054906101000a900460ff16151561253a57600080fd5b803373ffffffffffffffffffffffffffffffffffffffff16600160008373ffffffffffffffffffffffffffffffffffffffff1673ffffffffffffffffffffffffffffffffffffffff16815260200190815260200160002060010160009054906101000a900473ffffffffffffffffffffffffffffffffffffffff1673ffffffffffffffffffffffffffffffffffffffff161415156125d757600080fd5b6000600160008473ffffffffffffffffffffffffffffffffffffffff1673ffffffffffffffffffffffffffffffffffffffff16815260200190815260200160002060010160156101000a81548160ff0219169083151502179055505050565b60008060008060149054906101000a900460ff16151561265557600080fd5b843373ffffffffffffffffffffffffffffffffffffffff16600160008373ffffffffffffffffffffffffffffffffffffffff1673ffffffffffffffffffffffffffffffffffffffff16815260200190815260200160002060010160009054906101000a900473ffffffffffffffffffffffffffffffffffffffff1673ffffffffffffffffffffffffffffffffffffffff161415156126f257600080fd5b600160008773ffffffffffffffffffffffffffffffffffffffff1673ffffffffffffffffffffffffffffffffffffffff168152602001908152602001600020935083600901600086815260200190815260200160002060009054906101000a900473ffffffffffffffffffffffffffffffffffffffff1692508360080160008473ffffffffffffffffffffffffffffffffffffffff1673ffffffffffffffffffffffffffffffffffffffff16815260200190815260200160002091508160010160169054906101000a900460ff161515156127cc57600080fd5b8160010160019054906101000a900460ff161515156127ea57600080fd5b60018260010160166101000a81548160ff02191690831515021790555060018260010160016101000a81548160ff0219169083151502179055508360040160008154809291906001900391905055508160010160029054906101000a900473ffffffffffffffffffffffffffffffffffffffff1673ffffffffffffffffffffffffffffffffffffffff166108fc83600201549081150290604051600060405180830381858888f193505050501580156128a7573d6000803e3d6000fd5b507f020250c059c13097f34c609c0cfa708a4451028ab1ab7eb252ea662eb9d62f5d84600001873385600001866002015460405180806020018673ffffffffffffffffffffffffffffffffffffffff1673ffffffffffffffffffffffffffffffffffffffff1681526020018573ffffffffffffffffffffffffffffffffffffffff1673ffffffffffffffffffffffffffffffffffffffff168152602001806020018481526020018381038352888181546001816001161561010002031660029004815260200191508054600181600116156101000203166002900480156129cf5780601f106129a4576101008083540402835291602001916129cf565b820191906000526020600020905b8154815290600101906020018083116129b257829003601f168201915b5050838103825285818154600181600116156101000203166002900481526020019150805460018160011615610100020316600290048015612a525780601f10612a2757610100808354040283529160200191612a52565b820191906000526020600020905b815481529060010190602001808311612a3557829003601f168201915b505097505050505050505060405180910390a1505050505050565b60008060008060149054906101000a900460ff161515612a8c57600080fd5b853373ffffffffffffffffffffffffffffffffffffffff16600160008373ffffffffffffffffffffffffffffffffffffffff1673ffffffffffffffffffffffffffffffffffffffff16815260200190815260200160002060010160009054906101000a900473ffffffffffffffffffffffffffffffffffffffff1673ffffffffffffffffffffffffffffffffffffffff16141515612b2957600080fd5b600160008873ffffffffffffffffffffffffffffffffffffffff1673ffffffffffffffffffffffffffffffffffffffff168152602001908152602001600020935083600901600087815260200190815260200160002060009054906101000a900473ffffffffffffffffffffffffffffffffffffffff1692508360080160008473ffffffffffffffffffffffffffffffffffffffff1673ffffffffffffffffffffffffffffffffffffffff1681526020019081526020016000209150848260010160006101000a81548160ff02191690831515021790555050505050505050565b6000809054906101000a900473ffffffffffffffffffffffffffffffffffffffff1673ffffffffffffffffffffffffffffffffffffffff163373ffffffffffffffffffffffffffffffffffffffff16141515612c6557600080fd5b600073ffffffffffffffffffffffffffffffffffffffff168173ffffffffffffffffffffffffffffffffffffffff1614151515612ca157600080fd5b8073ffffffffffffffffffffffffffffffffffffffff166000809054906101000a900473ffffffffffffffffffffffffffffffffffffffff1673ffffffffffffffffffffffffffffffffffffffff167f8be0079c531659141344cd1fd0a4f28419497f9722a3daafe3b4186f6b6457e060405160405180910390a3806000806101000a81548173ffffffffffffffffffffffffffffffffffffffff021916908373ffffffffffffffffffffffffffffffffffffffff16021790555050565b60008060149054906101000a900460ff161515612d7b57600080fd5b823373ffffffffffffffffffffffffffffffffffffffff16600160008373ffffffffffffffffffffffffffffffffffffffff1673ffffffffffffffffffffffffffffffffffffffff16815260200190815260200160002060010160009054906101000a900473ffffffffffffffffffffffffffffffffffffffff1673ffffffffffffffffffffffffffffffffffffffff16141515612e1857600080fd5b600160008573ffffffffffffffffffffffffffffffffffffffff1673ffffffffffffffffffffffffffffffffffffffff16815260200190815260200160002091508282600701816000191690555050505050565b60008060149054906101000a900460ff161515612e8857600080fd5b82600160008273ffffffffffffffffffffffffffffffffffffffff1673ffffffffffffffffffffffffffffffffffffffff16815260200190815260200160002060010160149054906101000a900460ff161515612ee457600080fd5b612eee84336120fb565b151515612efa57600080fd5b600160008573ffffffffffffffffffffffffffffffffffffffff1673ffffffffffffffffffffffffffffffffffffffff168152602001908152602001600020915081600301548260040154101515612f5157600080fd5b662386f26fc100006001836002015402023410151515612f7057600080fd5b816004016000815480929190600101919050555060c0604051908101604052808481526020016000151581526020016000151581526020013373ffffffffffffffffffffffffffffffffffffffff168152602001600015158152602001348152508260080160003373ffffffffffffffffffffffffffffffffffffffff1673ffffffffffffffffffffffffffffffffffffffff168152602001908152602001600020600082015181600001908051906020019061302e9291906136b4565b5060208201518160010160006101000a81548160ff02191690831515021790555060408201518160010160016101000a81548160ff02191690831515021790555060608201518160010160026101000a81548173ffffffffffffffffffffffffffffffffffffffff021916908373ffffffffffffffffffffffffffffffffffffffff16021790555060808201518160010160166101000a81548160ff02191690831515021790555060a08201518160020155905050338260090160008460040154815260200190815260200160002060006101000a81548173ffffffffffffffffffffffffffffffffffffffff021916908373ffffffffffffffffffffffffffffffffffffffff1602179055507fdbd09efc0b84aa2172815c5094aa75fbdd43ae888f608bb0252cca7ae4cfefcb826000018360010160009054906101000a900473ffffffffffffffffffffffffffffffffffffffff1633863460405180806020018673ffffffffffffffffffffffffffffffffffffffff1673ffffffffffffffffffffffffffffffffffffffff1681526020018573ffffffffffffffffffffffffffffffffffffffff1673ffffffffffffffffffffffffffffffffffffffff1681526020018060200184815260200183810383528881815460018160011615610100020316600290048152602001915080546001816001161561010002031660029004801561327f5780601f106132545761010080835404028352916020019161327f565b820191906000526020600020905b81548152906001019060200180831161326257829003601f168201915b5050838103825285818151815260200191508051906020019080838360005b838110156132b957808201518184015260208101905061329e565b50505050905090810190601f1680156132e65780820380516001836020036101000a031916815260200191505b5097505050505050505060405180910390a150505050565b600060149054906101000a900460ff16151561331957600080fd5b67016345785d8a00003414151561332f57600080fd5b610140604051908101604052808581526020013373ffffffffffffffffffffffffffffffffffffffff1681526020016001151581526020016000151581526020018381526020018481526020016000815260200182815260200160206040519081016040528060008152508152602001600060010260001916815250600160003373ffffffffffffffffffffffffffffffffffffffff1673ffffffffffffffffffffffffffffffffffffffff16815260200190815260200160002060008201518160000190805190602001906134069291906136b4565b5060208201518160010160006101000a81548173ffffffffffffffffffffffffffffffffffffffff021916908373ffffffffffffffffffffffffffffffffffffffff16021790555060408201518160010160146101000a81548160ff02191690831515021790555060608201518160010160156101000a81548160ff0219169083151502179055506080820151816002015560a0820151816003015560c0820151816004015560e082015181600501556101008201518160060190805190602001906134d39291906136b4565b5061012082015181600701906000191690559050506003600081548092919060010191905055503360026000600354815260200190815260200160002060006101000a81548173ffffffffffffffffffffffffffffffffffffffff021916908373ffffffffffffffffffffffffffffffffffffffff1602179055507f131c6313ee434534c7af9cd09fea2c8f4d21548f9706a2e498ba9f364a682f598433858460405180806020018573ffffffffffffffffffffffffffffffffffffffff1673ffffffffffffffffffffffffffffffffffffffff168152602001848152602001838152602001828103825286818151815260200191508051906020019080838360005b838110156135f15780820151818401526020810190506135d6565b50505050905090810190601f16801561361e5780820380516001836020036101000a031916815260200191505b509550505050505060405180910390a150505050565b828054600181600116156101000203166002900490600052602060002090601f016020900481019282601f1061367557805160ff19168380011785556136a3565b828001600101855582156136a3579182015b828111156136a2578251825591602001919060010190613687565b5b5090506136b09190613734565b5090565b828054600181600116156101000203166002900490600052602060002090601f016020900481019282601f106136f557805160ff1916838001178555613723565b82800160010185558215613723579182015b82811115613722578251825591602001919060010190613707565b5b5090506137309190613734565b5090565b61375691905b8082111561375257600081600090555060010161373a565b5090565b905600a165627a7a72305820604ecd76dfe2d7d0b2073130edd0fc7a4d047e247bea034287245fb77b5edc1d0029",
  "source": "pragma solidity ^0.4.4;\n\nimport \"./Ownable.sol\";\n\ncontract Activitycontract is Ownable\n{\n\n    mapping(address => Activity) activities;        //owner of activity to map  Activity struct \n    mapping(uint => address) activitiestIndex;      //index of activity to map  address of activity owner \n    uint numberOfActivity;                          \n\n    struct Activity {\n        string   name;\n        address   owner;\n        bool  isActive;             \n        bool  isPayActive;\n        uint price;\n        uint limit;\n        uint registeredCount;\n        uint date;\n        string    participationUrl ;//we should change this ,string is visible :)\n        bytes32   validateNumber ;//this is a hash  to participant verify themselves for payback money\n\n        mapping(address => Participant) participants; //address of user to map Participant struct\n        mapping(uint => address) participantIndex;    //index of user to map address of user\n\n    }\n\n\n\n    struct Participant {\n        string email;\n        bool validated; \n        bool payBack;   \n        address addr;\n        bool deleted;\n        uint256 value; //amount of deposid ,maybe this is unnecassry :)\n    }\n\n    event ParticipantRegisteredAt(string name,address _Owner,address usr, string email,uint value);\n    event ParticipantDeletedAt(string name,address _Owner, address usr, string email,uint value);\n    event ParticipantPayBackAt(string name,address _Owner, address usr, string email,uint value);\n\n    event ActivityCreated(string _name,address _owner,uint _limit,uint _date);\n    event OwnershipTransferred(string  _name,address indexed previousOwner, address indexed newOwner);\n\n    function Activitycontract(bool _isActive,bool _isPayActive) public {\n        owner = msg.sender;\n        isActive=_isActive;\n        isPayActive=_isPayActive;\n    }\n\n    modifier onlyActiveActivity(address _act) {\n        require(activities[_act].isActive);\n        _;\n    }\n    modifier onlyOwnerActivity(address _act) {\n        require(activities[_act].owner == msg.sender);\n        _;\n    }\n\n    function createActivity(string _name,uint _limit,uint _price,uint _date)\n    onlyActive\n    payable\n    public\n    {\n\n        if (msg.value != 1* 10**17 ){ //assume 0.1 ether to prevent DDOS, 0.01 ether :)\n            revert();\n        }\n        // require(activities[msg.sender].owner == address(0)); //if has not  create an activity before\n        activities[msg.sender] = Activity(\n            {\n            name:_name,\n            owner:msg.sender,\n            isActive:true,\n            isPayActive:false,\n            price:_price,    //only  owner of activity  can change\n            limit:_limit,\n            date:_date,\n            registeredCount:0,\n            participationUrl:\"\",\n            validateNumber:0\n            });\n        numberOfActivity++;//start with index 1\n        activitiestIndex[numberOfActivity] = msg.sender;\n\n        ActivityCreated(_name,msg.sender,_limit,_date);\n\n\n    }\n\n    function registerToActivity(address _activity,string _email)\n    onlyActive\n    onlyActiveActivity(_activity)\n    payable\n    public {\n        require(!isRegistered(_activity,msg.sender));\n\n        Activity storage activity = activities[_activity];\n        require(activity.registeredCount < activity.limit);\n\n\n        require(msg.value >= activity.price * 1*10**16); //price control 1*ether value,now 0.1 ether\n\n        activity.registeredCount++;\n        activity.participants[msg.sender] = Participant(_email, false,false, msg.sender, false,msg.value);\n        activity.participantIndex[activity.registeredCount] = msg.sender;\n\n        ParticipantRegisteredAt(activity.name,activity.owner,msg.sender,_email,msg.value);\n    }\n\n    function isRegistered(address _activity,address _partipantaddr) public constant returns (bool) {\n        Activity storage activity = activities[_activity];//may be this is unnecassry\n\n        return  activity.owner!=address(0) &&\n        activity.participants[_partipantaddr].addr != address(0)  &&\n        !activity.participants[_partipantaddr].deleted;\n    }\n\n\n    function getParticipationUrl(address _activity) public\n    onlyActive\n    onlyActiveActivity(_activity)\n    constant returns (string) {\n        require(isRegistered(_activity,msg.sender));\n        require(activities[_activity].participants[msg.sender].validated);\n        return activities[_activity].participationUrl;\n    }\n    function getTotalActivity() public constant returns (uint) {\n        return numberOfActivity;\n    }\n\n    function getTotalParticipant(address _activity) public constant returns (uint) {\n        return activities[_activity].registeredCount;\n    }\n\n\n    function getLimit(address _activity) public constant returns (uint) {\n        return activities[_activity].limit;\n    }\n\n    function leaveActivity(address _activity)\n    onlyActive\n    onlyActiveActivity(_activity)\n    public view{\n        require(isRegistered(_activity,msg.sender));\n    }\n\n    function getInfoActivity(address _activity)\n    public view returns(string,address,bool,uint,uint,uint,uint){\n        Activity storage temp = activities[_activity];\n        return (temp.name,temp.owner,temp.isActive,temp.price,temp.registeredCount,temp.limit,temp.date);\n        \n    }\n    //Admin methods\n    function getParticipiant(address _activity,uint idx) public\n    onlyActive\n    onlyOwnerActivity(_activity)\n    constant\n    returns (uint index, string email, address addr,uint256 value)\n    {\n        Activity storage activity = activities[_activity];\n        address userAddr = activity.participantIndex[idx];\n        Participant storage participant = activity.participants[userAddr];\n        return (idx, participant.email, participant.addr,participant.value);\n    }\n\n    function deleteParticipiant(address _activity,uint idx) public\n    onlyActive\n    onlyOwnerActivity(_activity)\n    {\n        Activity storage activity = activities[_activity];\n        address userAddr = activity.participantIndex[idx];\n        Participant storage participant = activity.participants[userAddr];\n\n\n        require(!participant.deleted); //is not deleted\n        require(!participant.payBack);  //is not payBack\n\n        participant.deleted = true;\n        participant.payBack=true;\n        activity.registeredCount--;\n\n        participant.addr.transfer(participant.value);//if is it fail ,throws on failure\n        ParticipantDeletedAt(activity.name,address(_activity),msg.sender,participant.email,participant.value);\n\n    }\n\n    function validateStudentStatus(address _activity,uint idx, bool isValidated)\n    onlyActive\n    onlyOwnerActivity(_activity)\n    public\n    {\n        Activity storage activity = activities[_activity];\n        address userAddr = activity.participantIndex[idx];\n        Participant storage participant = activity.participants[userAddr];\n        participant.validated = isValidated;\n    }\n\n\n    // if we will share invitation link like this,we must change this method because string is visibile on blockexplorer :)\n    function setParticipationLink(address _activity,string url) public\n    onlyActive\n    onlyOwnerActivity(_activity) {\n        activities[_activity].participationUrl = url;\n    }\n\n    function setPrice(address _activity,uint _price) public\n    onlyActive\n    onlyOwnerActivity(_activity) {\n        activities[_activity].price = _price;\n    }\n    function getPrice(address _activity) public view returns(uint) {\n        return activities[_activity].price;\n    }\n\n    function closeParticipation(address _activity) public\n    onlyActive\n    onlyOwnerActivity(_activity) {\n        activities[_activity].isActive = false;\n    }\n\n    function openParticipation(address _activity) public\n    onlyActive\n    onlyOwnerActivity(_activity) {\n        activities[_activity].isActive = true;\n    }\n\n    function closePayActive(address _activity) public  onlyActive\n    onlyOwnerActivity(_activity) {\n        activities[_activity].isPayActive = false;\n    }\n\n    function openPayActive(address _activity) public  onlyActive\n    onlyOwnerActivity(_activity) {\n        activities[_activity].isPayActive = true;\n    }\n\n\n\n    //only Owner set validateNumber=keccak256(key), during lesson we will share only key to participants\n    function validateMeReturnMoney(address _activity,string _key) public\n    onlyActive\n    onlyActiveActivity(_activity)\n    {\n        require(isRegistered(_activity,msg.sender));\n        Activity storage activity = activities[_activity];\n        require(activity.validateNumber==keccak256(_key));\n\n        Participant storage participant = activity.participants[msg.sender];\n\n        require(!participant.deleted); //is not deleted\n        require(!participant.payBack);  //is not payBack\n\n        participant.payBack=true;\n\n        participant.addr.transfer(participant.value * 6);//if is it fail ,throws on failure\n        //todo   multiple 5 times for only test, change later\n        ParticipantPayBackAt(activity.name,activity.owner,msg.sender,participant.email,participant.value);\n\n\n    }\n    function setValidateHash(address _activity,bytes32 _hash) public\n    onlyActive\n    onlyOwnerActivity(_activity){\n        Activity storage activity = activities[_activity];\n        activity.validateNumber=_hash;\n    }\n    function getValidateHash(address _activity)\n    onlyOwnerActivity(_activity)\n    public constant returns(bytes32)\n    {\n        return activities[_activity].validateNumber;\n    }\n    function transferOwnershipActivity(address _activity,address newOwner)\n    onlyActive\n    onlyOwnerActivity(_activity)\n    public{\n        Activity storage activity = activities[_activity];\n        require(newOwner != address(0));\n        OwnershipTransferred(activity.name,owner,newOwner);\n        activity.owner = newOwner;\n    }\n\n    function getName(address _activity) public constant returns(string){\n        return activities[_activity].name;\n    }\n    function getActive() public constant returns(bool){\n        return isActive;\n    }\n    function setActive() onlyOwner public {\n        isActive=true;\n    }\n}",
  "sourcePath": "/Users/fatih/Desktop/ether-registration/contracts/Activitycontract.sol",
  "compiler": {
    "name": "solc",
    "version": "0.4.23+commit.124ca40d.Emscripten.clang"
  },
  "schemaVersion": "2.0.0",
  "updatedAt": "2018-06-22T11:39:21.659Z"
}