{
  "contractName": "Test",
  "abi": [
    {
      "anonymous": false,
      "inputs": [
        {
          "indexed": false,
          "name": "_newValue",
          "type": "bytes32"
        }
      ],
      "name": "valuechanged",
      "type": "event"
    },
    {
      "constant": false,
      "inputs": [
        {
          "name": "_key",
          "type": "string"
        }
      ],
      "name": "setValue",
      "outputs": [],
      "payable": false,
      "stateMutability": "nonpayable",
      "type": "function"
    },
    {
      "constant": false,
      "inputs": [
        {
          "name": "_hash",
          "type": "bytes32"
        }
      ],
      "name": "setHash",
      "outputs": [],
      "payable": false,
      "stateMutability": "nonpayable",
      "type": "function"
    },
    {
      "constant": true,
      "inputs": [
        {
          "name": "_key",
          "type": "string"
        }
      ],
      "name": "getKeccak256",
      "outputs": [
        {
          "name": "",
          "type": "bytes32"
        }
      ],
      "payable": false,
      "stateMutability": "pure",
      "type": "function"
    },
    {
      "constant": true,
      "inputs": [],
      "name": "getK",
      "outputs": [
        {
          "name": "",
          "type": "bytes32"
        }
      ],
      "payable": false,
      "stateMutability": "view",
      "type": "function"
    },
    {
      "constant": true,
      "inputs": [
        {
          "name": "_key",
          "type": "string"
        }
      ],
      "name": "checkEqual",
      "outputs": [
        {
          "name": "",
          "type": "bool"
        }
      ],
      "payable": false,
      "stateMutability": "view",
      "type": "function"
    }
  ],
  "bytecode": "0x608060405234801561001057600080fd5b5061041c806100206000396000f30060806040526004361061006c576000357c0100000000000000000000000000000000000000000000000000000000900463ffffffff168062f86ac7146100715780630c4c4285146100f657806393a0935214610127578063ee39e7a014610190578063f9da66a5146101c3575b600080fd5b34801561007d57600080fd5b506100d8600480360381019080803590602001908201803590602001908080601f0160208091040260200160405190810160405280939291908181526020018383808284378201915050505050509192919290505050610244565b60405180826000191660001916815260200191505060405180910390f35b34801561010257600080fd5b5061012560048036038101908080356000191690602001909291905050506102b0565b005b34801561013357600080fd5b5061018e600480360381019080803590602001908201803590602001908080601f01602080910402602001604051908101604052809392919081815260200183838082843782019150505050505091929192905050506102be565b005b34801561019c57600080fd5b506101a561036f565b60405180826000191660001916815260200191505060405180910390f35b3480156101cf57600080fd5b5061022a600480360381019080803590602001908201803590602001908080601f0160208091040260200160405190810160405280939291908181526020018383808284378201915050505050509192919290505050610378565b604051808215151515815260200191505060405180910390f35b6000816040518082805190602001908083835b60208310151561027c5780518252602082019150602081019050602083039250610257565b6001836020036101000a03801982511681845116808217855250505050505090500191505060405180910390209050919050565b806000816000191690555050565b806040518082805190602001908083835b6020831015156102f457805182526020820191506020810190506020830392506102cf565b6001836020036101000a0380198251168184511680821785525050505050509050019150506040518091039020600081600019169055507fae83767177d36a933209d977c4378d3e32ac506feda223f78e3264e7ac70785260005460405180826000191660001916815260200191505060405180910390a150565b60008054905090565b6000816040518082805190602001908083835b6020831015156103b0578051825260208201915060208101905060208303925061038b565b6001836020036101000a038019825116818451168082178552505050505050905001915050604051809103902060001916600054600019161490509190505600a165627a7a72305820e95553ef049de0322b28b52ca393531e65eace4f84194dbd54dd672fa78743890029",
  "source": "pragma solidity ^0.4.4;\ncontract Test {\n    bytes32 value;\n\n    event valuechanged(bytes32 _newValue);\n\n    function setValue(string _key) public{ //defaultda bu olmucak\n        value=keccak256(_key);\n        valuechanged(value);\n    }\n\n    function setHash(bytes32 _hash) public{\n        value=_hash;\n    }\n    function getKeccak256(string _key) public pure  returns(bytes32){\n        return keccak256(_key);\n    }\n    function getK() public constant returns(bytes32){\n        return value;\n    }\n    function checkEqual(string _key) public constant returns(bool){\n        return value==keccak256(_key);\n    }\n\n\n}\n\n    \n\n\n\n\n\n\n\n",
  "sourcePath": "/Users/fatih/Desktop/ether-registration/contracts/test.sol",
  "compiler": {
    "name": "solc",
    "version": "0.4.23+commit.124ca40d.Emscripten.clang"
  },
  "schemaVersion": "2.0.0",
  "updatedAt": "2018-06-22T11:37:19.555Z"
}